:020000041000EA
:1000000000C00120B9370010F5370010F737001095
:10001000F9370010FB370010FD370010000000001A
:10002000000000000000000000000000FF3700108A
:10003000013800100000000003380010BD5300100C
:10004000093800100B3800100D380010495200100C
:100050001138001005520010115200101D520010EE
:10006000193800101B3800101D3800101F38001000
:1000700021380010913D00103951001069510010D5
:10008000293800102B3800102D3800102F380010A0
:100090003138001033380010353800103738001070
:1000A000893A0010913A0010993A00103F38001038
:1000B00029520010315200103952001041520010E4
:1000C000493800104B3800109D5100104F38001077
:1000D0009D3D00105338001055380010573800105F
:1000E000593800105B3800105D3800105F38001080
:1000F0006138001063380010653800106738001050
:10010000693800106B3800106D3800106F3800101F
:1001100071380010733800107538001077380010EF
:10012000793800107B3800107D3800107F380010BF
:100130008138001083380010A93D00108738001066
:10014000893800108B3800108D3800108F3800105F
:10015000913800109338001095380010973800102F
:10016000993800109B3800109D3800109F380010FF
:10017000A1380010A3380010A5380010A7380010CF
:10018000A9380010AB380010AD380010AF3800109F
:10019000B1380010B3380010B5380010B73800106F
:1001A000D1510010BB380010BD380010BF3800100E
:1001B000C1380010C3380010C5380010C73800100F
:1001C000C9380010CB380010CD380010CF380010DF
:1001D000D1380010D3380010D5380010D7380010AF
:1001E000D9380010DB380010DD380010DF3800107F
:1001F000E1380010E338001010B5054C237833B90E
:10020000044B13B10448AFF300800123237010BDE9
:10021000A80A00200000000044F6001008B5034BB7
:100220001BB103490348AFF3008008BD0000000084
:10023000AC0A002044F6001007F082BF07F00EBFA2
:1002400007F086BF704700BF704700BF704700BF10
:10025000704700BF88B138B5082105460120FFF777
:10026000EDFF044660B14FF480710120FFF7E6FF17
:10027000206040B12C60002038BD6FF01500704741
:100280006FF00B0038BD2046FFF7DAFF6FF00B0070
:1002900038BD00BF02790346407990420AD010B4BD
:1002A0001C68A25C0A701A7901321A7100205DF88C
:1002B000044B70474FF0FF30704700BF4279034650
:1002C000007902F1010C844509D010B41C68A154D6
:1002D0005A7901325A7100205DF8044B70474FF093
:1002E000FF30704718B1006808B1FFF7A9BF704729
:1002F000401A8010704700BF20B143691B6800207E
:10030000196070474FF0FF30704700BF20B143695C
:100310005B680020196070474FF0FF30704700BFE6
:1003200048B141B100230B60426912681AB11268EA
:100330000A60184670474FF0FF30704748B141B12E
:1003400000230B60426952681AB112680A601846AD
:1003500070474FF0FF307047F0B1E9B138B5002376
:100360000B6043699A68A2B15868D0E9014504B1AD
:10037000A56005B16C601D685C6045B13CB1046866
:10038000013A9A600C60FFF75BFF002038BD1C60EB
:10039000F5E74FF0FF3038BD4FF0FF30704700BF3A
:1003A00020B319B338B500230B6043699C68D4B1FE
:1003B0001868D0E9015205B1AA608AB1904255602F
:1003C0005D6809D01A6065B10268013C9C600A60F2
:1003D000FFF736FF002038BD002DF5D11D60F3E793
:1003E0001A605A60F0E74FF0FF3038BD4FF0FF3031
:1003F000704700BFD8B170B544690D4601200C218B
:100400006668FFF71BFF78B1056006B1B06023682E
:100410000022C0E90162606023B1A36801330020BB
:10042000A36070BD2060F8E74FF0FF3070BD4FF063
:10043000FF30704700283AD0F8B50F46064618211D
:1004400001201546FFF7FAFE044600282CD01C2197
:100450000120FFF7F3FE20B3164B3460002D08BFD8
:100460001D46012F6061C56019D0032F0CD1124ABF
:10047000124B1349C4E90023124A134B2361C4E908
:10048000021240610020F8BD104A114B0D49C4E929
:1004900000230B4A0F4B2361C4E90212F1E70B4A18
:1004A000E6E72046FFF7CCFE4FF0FF30F8BD4FF0F7
:1004B000FF307047F102001045070010A103001043
:1004C000210300103D030010F9020010F503001095
:1004D000590300100D03001060B338B543691A6961
:1004E000054622BB9A689AB11868D0E9014104B167
:1004F000A160A9B188424C605C6814D0196084B1D5
:10050000013A9A60FFF79CFE6B699A68002AEBD16A
:100510001846FFF795FE2846FFF792FE002038BDEB
:1005200019605960ECE7002CEAD11C60E8E74FF055
:10053000FF3038BD4FF0FF30704700BF28B121B108
:1005400043699B680B60002070474FF0FF30704795
:1005500050B370B544690D4601200C212668FFF7A1
:100560006DFEF0B10023C0E90136056006B1706090
:10057000D4E9002390420CD0206023B1A36801335A
:100580000020A36070BDA368606001330020A360F9
:10059000F8E7002BF2D12360A36801330020A360A9
:1005A000F0E74FF0FF3070BD4FF0FF30704700BFF5
:1005B000E8B1F8B50F46B9B100230B6045699DB1AC
:1005C0006B691C6816462A68AA611CB90CE0A4680D
:1005D00054B16B69DB682068314698470028F6D132
:1005E0002368AC613B60F8BD4FF0FF30F8BD4FF0C1
:1005F000FF307047002839D038B543680446002BD7
:1006000031D000292FD0D3E9010200B1826002B1BC
:10061000506022681068834214D05568AB421BD0EA
:1006200090681B68013890600B60D4E90020D0E925
:1006300001355268904208BF1D46FFF701FE656014
:10064000002038BD98685568834208D010600DB10D
:100650000028E5D15060E3E75D68556008B1002DE2
:10066000DED11560DCE74FF0FF3038BD4FF0FF30D2
:10067000704700BF18B32DE9F0410F46D9B10023F0
:100680000B6045696B691C6816462A68AA6105F10A
:1006900014081CB90FE0A4686CB16B69DB682068B2
:1006A000314698470028F6D1AC6139464046BDE84E
:1006B000F041FFF79FBF4FF0FF30BDE8F0814FF0F2
:1006C000FF30704700283AD0F0B587B00368059333
:1006D0000E460446AAB147685B689F4227D00C21AA
:1006E0000120BD68FFF7AAFDF0B10660B860C0E95F
:1006F0000175BDB92268936801330020936007B08B
:10070000F0BD45681B689D4215D00C2101206F6823
:10071000FFF794FD40B1C0E90067856017B1B8608C
:10072000C0E901756860E5E74FF0FF30E7E768462C
:10073000FFF760FEE3E76846FFF70AFFDFE74FF0E9
:10074000FF30704700B370B545692C680E4614B988
:1007500010E0A46874B12068EB683146984700281F
:10076000F7DDAC61314605F114000022BDE87040B0
:10077000FFF7A8BF6B68AB61314605F11400012299
:10078000BDE87040FFF79EBF4FF0FF30704700BFDD
:1007900058B110F001020AD1034602E013F0010F34
:1007A00007D15B0802F10102F8D1202399400840EB
:1007B0007047914008407047014078B110F0010344
:1007C00002D006E0C20706D4400803F10103F9D1C4
:1007D000002108467047D940084670470146F8E7AF
:1007E0000346020A000A05D00020D10748BF0130A5
:1007F0005208FAD113F0FF0306D00022D90748BFF0
:1008000001325B08FAD11044704700BF008840BA3B
:1008100080B27047C1F10F01C9B2884000B20841EF
:10082000704700BF2DE9F04F8BB01D46834B9DF8FC
:1008300058809DF85B909DF85EA09DF85FB00E46D5
:100840009DF85C10039117469DF85D109DF85920A6
:10085000029298429DF85A200491044600F0858047
:1008600003F5F023984208D0042DCCBF6FF00200AE
:100870006FF001000BB0BDE8F08F042D00F3DA80BB
:100880006F4B15991B688B42C0F0D4809DF8603087
:100890008DF826306B4B07932B20002305928DF8A3
:1008A000253002F05FFC302002F0B4FA059A07AB65
:1008B000002A4BD1B9F1000F37D1B8F1000F42D166
:1008C000CDF82080039A1AB1089A42F040020892AB
:1008D000049A1AB1089A42F020020892BAF1000F65
:1008E00003D0089A42F480720892BBF1000F03D043
:1008F000089A42F400720892029A1AB1089A42F0D9
:1009000010020892184602238DF8243002F094FD5C
:10091000159B0193149B00933A462B463146204683
:1009200000F0FCF80BB0BDE8F08F03228DF8242016
:1009300018464FF480620593089202F07DFD059BF6
:10094000B8F1000FBCD080220892BBE74FF40062E0
:1009500008921846032205938DF8242002F06CFDBE
:10096000059BB9F1000FA8D0DFE7042D62DC344B02
:1009700015991B68B1EB530F5CD89DF860308DF86A
:100980002630304B07930D20002305928DF825303B
:1009900002F0E8FB062002F03DFA059A07AB002AB8
:1009A00035D1B9F1000F26D1B8F1000F3ED1CDF805
:1009B0002080039A1AB1089A42F480020892049A9D
:1009C0001AB1089A42F400120892BAF1000F03D04B
:1009D000089A42F080720892BBF1000F03D0089A87
:1009E00042F000720892029A002A8BD0089A42F4D0
:1009F0008012089286E703228DF8242018464FF0D3
:100A000000620593089202F017FD059BCCE74FF0BA
:100A1000806208921846032205938DF8242002F084
:100A20000BFD059BB9F1000FBED0E4E74FF40002C7
:100A30000892BEE76FF002001CE700BF00600440B0
:100A4000080000200080004010B5044600F0DEF8E9
:100A5000094B9C4207D0094B9C4209D1302002F03F
:100A6000B7F9002010BD062002F0B2F9002010BD39
:100A70006FF0010010BD00BF0060044000E00B40BB
:100A8000164B98420FD0164B984224D14FF080431A
:100A90009B68C3F34223072B1AD8DFE803F012192F
:100AA0001416080A0D100F4B1868800870470E487E
:100AB00070474FF4611070474FF4804070470B4807
:100AC00070470B4870470B4870474FF47A60704787
:100AD0006FF0060070476FF002007047006004403E
:100AE00000E00B400800002080F0FA0260343C0275
:100AF00080C3C9010024F40000F0DEB800F026B97C
:100B000000F064B900F06CB900F08AB900F0B6B931
:100B100000F0E8B900F0EAB900F01EBA2DE9F041A2
:100B20009846364B069F9842044616465FD0344D91
:100B3000A8420CBF4FF0010C4FF0FF3C314B0CEBC7
:100B40008C0C4FEACC0003EBCC0C00221A50CCE901
:100B50000722CCF80820CCF8102001236FF0010206
:100B6000CCF80C30CCE905226360274B2361636825
:100B700001B343F00203636007992046FFF7BCFF0F
:100B8000FF2F37D8E36843EA0747E760236A236209
:100B9000B8F1010F1ED0B8F1020F0FD1636843F412
:100BA000403363609EB1E36843F400530020E36088
:100BB000BDE8F08123F002036360DDE7B8F1030FC5
:100BC0000DD1636843F4E0236360002EEBD130461F
:100BD000BDE8F081636843F480336360E2E7B8F115
:100BE000040FDFD1636843F470236360DAE74FF0EA
:100BF000000CA3E76FF00200DAE700BF00600440DA
:100C000000E00B40C40A0020010101002DE9F84377
:100C1000264B9842044646D0254EB0420CBF0126D2
:100C20004FF0FF3600236362236A23626368214D1D
:100C300006EB860023F0010363604FEAC008E36916
:100C400055F8089023F04013E361B70005EBC000AE
:100C5000B9F1000F09D002F0BBFA55F808305B6A11
:100C60001BB148466FF00E01984700236360A360F4
:100C7000E3602361BC1905EBC4046069984204DB9E
:100C800000F0B0FF6FF0010363613E4405EBC60561
:100C9000A869002804DB00F0A5FF6FF00103AB6139
:100CA0000020BDE8F8830026BCE700BF00600440D8
:100CB00000E00B40C40A002038B5234B1B68B1EBA1
:100CC000530F3DD80D460446FFF7DAFEB0FBF5F3AF
:100CD000580813F00103014623D10F2888BF0246AC
:100CE0002CD9002352100F2A03F101034FEA6101AE
:100CF0001EDD082BF6D14FF400234FF470620F2055
:100D0000616921F0FF0101436161616921F47F4163
:100D10000A436261626922F4702213430020636116
:100D200038BD421C0F2ADCDCC0B212020023E7E708
:100D3000082BE0D0C8B212021B04E1E70202DFE791
:100D40006FF0020038BD00BF0800002001290346F3
:100D500034D0102932DC1B4A90422AD002F5F0220E
:100D600090420CBF01224FF0FF32186BC00722D413
:100D7000154802EB820200EBC202D06801281AD1AA
:100D8000586820F00100586010299160DA680CD092
:100D9000090201F4706122F470621143D9605A684B
:100DA00042F0010200205A60704722F47062DA605B
:100DB000F5E70022D9E76FF0060070476FF00200F8
:100DC000704700BF00600440C40A0020C36813F4E9
:100DD000706F1ABFC068C0F303201020704700BFB7
:100DE000C36823F43043C360032907D8DFE801F068
:100DF000120E0802C36843F40053C360002070471A
:100E0000C36843F48053C36000207047C368C36065
:100E100000207047C36843F40043C360002070475C
:100E200003290BD8DFE801F00220160CC36823F079
:100E30000103C360C36823F00203C360002070474E
:100E4000C36843F00103C360C36843F00203C36097
:100E500000207047C36823F00103C360C36843F0F8
:100E60000203C36000207047C36843F00103C360FE
:100E7000C36823F00203C3600020704781B3F8B554
:100E800014460AB90020F8BD06460D46FFF740FE9D
:100E900007463046FFF734FEBC4228BF3C460828D0
:100EA000844603D924F00104012CEBD90023ACB112
:100EB000032C0CD93168E950043C0433012CF6D1E1
:100EC000BCF1080F0AD83278EA54581CF8BD012C3E
:100ED000F9D03188E952023C0233EFE71846F8BDF9
:100EE00000207047C069C0F30560704789B3F8B54A
:100EF00014460AB90020F8BD0D460646FFF70CFE61
:100F000007463046FFF7FCFDBC4228BF3C46082898
:100F100088BF24F001040146002CEBD0032C4FF0D5
:100F2000000007D92B583360043C0430002CE2D079
:100F3000032CF7D8012C06D02B5A3380023C023008
:100F4000002CF5D1D7E70829FDD82B5C3370013090
:100F5000F8BD0020704700BFC069C0F30520C0F194
:100F60002000704700F0FEB808B5124B98420DD033
:100F7000114B984212D0114B984217D1382001F0F2
:100F800027FF342002F0EEF8002008BD0D2001F00C
:100F90001FFF102002F0E6F8002008BD1C2001F021
:100FA00017FF202002F0DEF8002008BD6FF00100DE
:100FB00008BD00BF00D0014000E0014000F001404A
:100FC000C0B370B504460D461646FFF7CDFF1B4B68
:100FD0009C4212D01A4B9C421CD01A4B9C4226D1E8
:100FE000382001F017FF184802F026FA3246294649
:100FF0002046BDE8704000F04DB80D2001F00AFF1A
:10100000124802F019FA324629462046BDE87040DF
:1010100000F040B81C2001F0FDFE0D4802F00CFA73
:10102000324629462046BDE8704000F033B86FF0E4
:10103000010070BD4FF0FF30704700BF00D001408D
:1010400000E0014000F0014068EA001050EA0010A2
:101050005CEA001000F0A0B800F0F0B800F0FEB8B4
:1010600000F00EB900F01AB900F030B900F046B93E
:1010700000F04CB900F052B900F054B900F0BEB91C
:1010800000F092BA00F0A0BA014B196800F076BDEA
:1010900000000020F8B5002858D00F461021154652
:1010A0000446FFF7E9FF064608B13046F8BD23685D
:1010B00043F0010323602046FFF7D8FF2046FFF7E7
:1010C000D7FF02212046FFF7DDFF06212046FFF76C
:1010D000D7FFD7B123681F4A43F00203944223602D
:1010E0002ED01D4B9C420ED01C4884420CBF0224C3
:1010F0004FF0FF341A4B04EB440403EBC404012308
:1011000063603046F8BD0124F4E73A46294620469C
:10111000FFF728FF0F4B9C4214D003F580539C42ED
:1011200012D00E498C420CBF02214FF0FF310C4B04
:1011300001EB410403EBC404002666603046F8BDB1
:101140003446D7E73946F2E70121F0E74FF0FF36A2
:10115000ABE700BF00D0014000E0014000F00140DB
:10116000380B00200346A0B16AB9B1F5806F0DD2EB
:101170007F29C26484BF4FF40042C264C26C114331
:101180000020D96470476FF0100070476FF00200C4
:1011900070474FF0FF307047002841D010B4224A0A
:1011A000A1F574236FF410742344934214D31F4B9E
:1011B000994230D81E4B1B685B08B3FBF1F149081C
:1011C0008B1EB3F5FF7F01F1FF3124D841635DF839
:1011D000044B8163FFF740BF154B164C1B685B083F
:1011E000B3FBF1F14A00A4FB01C14908A4FB024290
:1011F000013952080F2902F1FF320CDC0F2A0ADCF8
:101200000902D2B289B21143C16302680A4942F4A9
:1012100000420260D1E76FF002005DF8044B7047B6
:101220004FF0FF30704700BF009F240040E13300C3
:1012300008000020ABAAAAAA801A06000649436B40
:10124000826B0868C2F30802C3F308031344400822
:10125000B0FBF3F0704700BF08000020034658B110
:10126000006B1A6B10F0010016BF42F0020242F050
:10127000010200201A6370474FF0FF30704700BF33
:1012800048B1036B43F004030363036B13F00403DF
:10129000FBD1184670474FF0FF30704798B191B1BD
:1012A0007AB1002301F1FF3C06E0C16A0133C9B203
:1012B0009A420CF8031004D041688907F5D5184606
:1012C0007047104670474FF0FF30704798B191B1AA
:1012D0007AB1002301F1FF3C06E001339A421CF889
:1012E0000310C9B2C16204D04168C906F5D51846D9
:1012F0007047104670474FF0FF307047C36943F0A6
:101300008003C361C3691B06FCD47047436A43F082
:1013100080034362436A1B06FCD47047816002610C
:10132000704700BF002865D0036843F001032DE932
:10133000F04103600768036843F480630E46044687
:1013400007F480670360002943D000252BE001F0FB
:1013500005FD236823F0800323600A2001F0FEFCD2
:10136000236813F400784FF00A002BD101F0F6FC4B
:10137000236843F0800323600A2001F0EFFC236818
:101380009A054FF00A001DD501F0E8FC236843F0F0
:10139000400323600A2001F0E1FC2368DB0525D42B
:1013A0000135AE4215D00A2001F0D8FC236823F0A5
:1013B000400323600A2001F0D1FC2368D9054FF0D7
:1013C0000A00C4D52368013543F0C003AE42236050
:1013D000E9D16FF008001FB9236823F4806323600C
:1013E000236823F001032360BDE8F0814046002F0D
:1013F000F6D1F1E74FF0FF30704700BF2DE9F04123
:10140000D0E900437F2B00F2C980664B9C42054621
:1014100008D003F580539C4204D003F580539C42CE
:1014200040F0B6802368980740F1B58007226FF03E
:101430007F412046FFF71EFE2046FFF719FE20469B
:10144000FFF714FE6A690023E360636142BBEA6848
:101450006B685B00E362236B43F0010300262363A8
:10146000202704E0A36813F4FE4F11D1EA689642E6
:1014700019D2A3689906F5D5A968921B3144204674
:10148000FFF7F2FDA760A36813F4FE4F0644EDD00A
:10149000EE602046FFF7E4FD6FF00800BDE8F08144
:1014A000EA68002AD4D1002211212046FFF7E2FD8C
:1014B0006B69002B4DD0B3F5807F88BF002323627A
:1014C0002046FFF7CBFD266B16F00206FBD16B68BA
:1014D0006A695B0043F00103E362002A39D01027F8
:1014E0004FF001081DE0A36813F4FE4329D1A26860
:1014F00012F0010F6A6912D0B24210D2911BB1F5FD
:10150000807F8CBF236221626B68216B5B0043F09C
:10151000010341F002012163C4F80880E3629642AE
:1015200017D2A36813F0110FDDD02969921B314443
:101530002046FFF797FDA760A36813F4FE43064417
:10154000D5D06E612046FFF78BFD6FF00800BDE837
:10155000F081AB698BB1236B43F002032363A36873
:10156000DB07FCD54123A360A36813F4FE4F0CBF37
:1015700000206FF00800BDE8F081236B43F0040306
:101580002363A3685A06FCD5A368DB07E7D5E9E720
:101590006FF00200EFE76FF00600ECE76FF010006D
:1015A000E9E700BF00D001408269D2B28A42034617
:1015B00007D3C26922F4706242EA01210020D96196
:1015C00070476FF0020070478269C2F307228A42B7
:1015D000034607D3426A22F4706242EA01210020E6
:1015E000596270476FF00200704700BF2DE9F84F55
:1015F000054640B1012800F09280022800F01E81CB
:1016000000239B68FFDEA54CDFF89CB2A368DBF8E3
:10161000007013F4FE4F40F0FA80DFF89092FA6801
:1016200059F82560DFF888A2B2425AF825801146A1
:101630000FD87B69434526D9A16811F0110F17D146
:10164000B24200F0C68049F825604AF82580BDE81E
:10165000F88FA368990600F19380E36843F02003B4
:10166000E3607B699845EED2A16811F0110FE7D0D5
:101670003969A3EB080241442046FFF7F3FC10232D
:10168000F968A3608044B142DDD17B69984540F0A0
:10169000A0800023E3606361A368A360BB69226943
:1016A0002261002B40F0D580236B43F004032363B9
:1016B000A36813F4FE4F794B00F0D0809C4200F0F9
:1016C000F98003F580539C4200F0078103F58053B5
:1016D0009C420CBF02234FF0FF335BF82300C36929
:1016E000002B00F0D3806FF0080198470023E360DF
:1016F0006361A268A260694A2169216194420AD0AB
:10170000674B9C4200F0C08003F580539C420CBFA5
:1017100002234FF0FF3300224BF8232097E7604C61
:10172000DFF884B1A368DBF8047013F4FE4F3FF4D4
:1017300074AFA368A360226922610023E36020469E
:101740006361FFF78DFC5BF82500C3691BB16FF087
:10175000080198470023E3606361A368A3602369DD
:1017600023614F4B9C4200F08D804E4DAC420CBF2C
:1017700002254FF0FF3500234BF82530BDE8F88FE8
:10178000B968921B31442046FFF76EFCFA680644A4
:101790002023B242A3603FF660AFE36823F020034A
:1017A000E3607FF45EAF7B69002B3FF46FAF226B89
:1017B00042F0020222630122A260E268434542F045
:1017C0000102E2607FF662AFA26812F0110F7FF4AF
:1017D0004FAFA268D2077FF536AF0122A260B8F101
:1017E000000F04D17A68520042F00102E262A3EBDA
:1017F0000802B2F5807F88BF002222629845E36824
:1018000034BF43F0110323F01103E3601BE7A36827
:10181000A360236923612046E5606561FFF720FC32
:10182000DBF80000C36913B16FF008019847E56069
:101830006561A368A360236923619CE7194CDFF805
:1018400068B0A368DBF8087013F4FE4F3FF4E5AE10
:101850006FE7236B43F00203236329E79C4236D0F2
:1018600003F580539C423AD003F580539C420CBF51
:1018700002234FF0FF335BF82300C36933B100212B
:10188000984733E7012576E7012344E7E360636186
:10189000A368A3602369236132E700BF00D0014041
:1018A00000E0014000F00140200B00202C0B002044
:1018B000140B0020DBF80000C369002B7FF413AF8A
:1018C000E3606361A268A2602269226123E7DBF81A
:1018D0000000C369002BD2D1F2E70123FDE601230A
:1018E000C9E700BF2DE9F84398460E469F4B1168A3
:1018F0008768D0F8009015460B4000220446C8F8CF
:101900000020002B75D117F4FE4F40F0E580CA0689
:1019100040F12781FB0606D51EB100220221204698
:10192000B0471023A3602369D90706D51EB1002252
:1019300006212046B04701232361296848F220038D
:101940000B4200F0F180BB0606D51EB10022032138
:101950002046B0472023A3602369980706D51EB10F
:10196000002205212046B0470223236139041FD5F8
:101970000023C8F800301EB1424604212046B0477B
:101980007B4A00234FF400419442A160C5E9003333
:101990000AD0784B9C4200F0E28003F580539C42D1
:1019A0000CBF02234FF0FF33734A002142F823108B
:1019B0007A061ED50023C8F800301EB14246042125
:1019C0002046B0476A4A002340219442A160C5E9FD
:1019D00000330AD0674B9C4200F0BF8003F5805370
:1019E0009C420CBF02234FF0FF33634A002142F8B0
:1019F00023107B0211D51EB1002211462046B047AC
:101A00004FF48003A3600823A3604FF40043A36056
:101A100047F6117C0123C5E900C338020ED51EB17B
:101A2000002201212046B0474FF40003A3600823A1
:101A3000A3604FF620710223C5E900133A0716D5BB
:101A400019F4006275D01EB1002201212046B04772
:101A50004FF480020823A2604FF40041A3604FF6C8
:101A600020720223A160C5E90023BDE8F88317F4C2
:101A7000FE4FFAD06FF00803C8F800301EB142469E
:101A800004212046B04707236FF07F42A260236104
:101A9000636A43F080036362636A1B06FCD4E369F4
:101AA00043F08003E361E36913F08003FBD1304A24
:101AB0009442C5E9003309D02E4B9C4249D003F52E
:101AC00080539C420CBF02234FF0FF332A4A00216F
:101AD00042F82310BDE8F8836FF00803C8F800301F
:101AE00016B142460421B04707226FF07F412046DD
:101AF000FFF7C0FA2046FFF7BBFA2046FFF7B6FA19
:101B00001B4A00239442C5E9003309D0194B9C427B
:101B100021D003F580539C420CBF02234FF0FF33CA
:101B2000154A002142F823106B689A077FF540AFF1
:101B300009E716B111462046B04708234FF40001CB
:101B4000A16047F61172A3600123C5E90023BDE837
:101B5000F8830123BAE70123E2E7012345E70123E4
:101B600022E76B68D8073FF5D5AEE7E60800C0006E
:101B700000D0014000E00140200B002030B5174BA1
:101B8000984285B0044624D003F58053984205D08E
:101B900003F5805398421ED005B030BD0120236864
:101BA0009B0704D505B0BDE83040FFF71FBDE568D1
:101BB0000B4B626953F82010CDE9025201AB02AA27
:101BC0002046FFF78FFEDDE90223E260636105B086
:101BD00030BD0020E3E70220E1E700BF00D0014074
:101BE000200B0020032870B516D800EB80000D4EA6
:101BF0008400335983B10C48012101F0DBFA05461A
:101C000068B933193051DB6807481D605A685A605B
:101C100001F0DEFA284670BD6FF00205FAE76FF0BA
:101C20000505F7E7840B0020800B002000F026BE9E
:101C300000F05CBE08B5174B984210D0164B984286
:101C400015D0164B98421AD0154B98421FD14420FC
:101C500001F088FA442001F0BBF8002008BD0B20F9
:101C600001F080FA092001F0B3F8002008BD0C2033
:101C700001F078FA0A2001F0ABF8002008BD1C2022
:101C800001F070FA212001F0A3F8002008BD6FF0E8
:101C9000020008BD00200440003004400040044021
:101CA0000014084070B504460E461546FFF7C2FF03
:101CB000A8BB022D2DD0042D18D0204B9C421BD048
:101CC0001F4B9C422CD01F4B9C4230D01E4B9C4241
:101CD00023D11E4801F0B0FB442001F09BF82A46B6
:101CE00031462046BDE8704000F068B9062001F09A
:101CF000B7F8124B9C42E3D1154801F09DFB092037
:101D000001F088F82A4631462046BDE8704000F0D0
:101D100055B9052001F0A4F8CFE76FF0020070BDBF
:101D20000C4801F089FB0A2001F074F8D7E70A4853
:101D300001F082FB212001F06DF8D0E70020044083
:101D4000003004400040044000140840E0EA001065
:101D500074EA001098EA0010BCEA001038B53A4B5B
:101D60009842044630D003F5805398422CD003F5B6
:101D70008053984228D003F57533984233D1052318
:101D8000022A436132D0042A2DD1B1F5165F4ED814
:101D9000036843F480330360036843F40013036073
:101DA00042D04FF48032B1F5166FB2FBF1F201FB75
:101DB00002F3C3F5803334D9244800254561B3EBE1
:101DC000510F88BF013218E0042A0CD0204600F0E1
:101DD0002DF9002806DD236843F4004323602368BF
:101DE0001B03FCD538BD6FF0020038BD03680360EB
:101DF000B1F5E10F88BF01221CD9144B1A611A6892
:101E000012F4403F0AD0186800F44030B0F5803F2B
:101E10000DD10E4B1B69B0FBF3F0DAE74FF4E10094
:101E2000F7E701206061CAE707220023C4E76FF0EB
:101E3000100038BD4FF4E102B2FBF1F201FB02F3F6
:101E4000C3F5E103BBE700BF0020044000140840D5
:101E5000164B98421AD003F58053984216D003F5DA
:101E60008053984212D003F5753398421AD1036813
:101E700013F4403F0CD0006800F44030B0F5803FD0
:101E80000DD10B4B1B69B0FBF3F0704700F028B984
:101E9000074B4FF4E1001B69B0FBF3F070476FF0A4
:101EA000100070476FF00200704700BF0020044030
:101EB0000014084000F05AB900F078B900F09CB95D
:101EC000012970B5204B0E460446154611D09842A4
:101ED00025D01E4B98421ED01D4B984231D11D4833
:101EE00001F0AAFA2A4631462046BDE8704000F0CB
:101EF000DDB998421DD0154B98421ED0144B984224
:101F00001FD1154801F098FA2A4631462046BDE80F
:101F1000704000F0CBB9114801F08EFAE2E71048AA
:101F200001F08AFA2A4631462046BDE8704000F0AA
:101F3000BDB90C4801F080FAD4E70B4801F07CFAF7
:101F4000D0E76FF0020070BD002004400030044074
:101F500000400440D4EA0010C8EA0010B0EA0010C3
:101F60008CEA001080EA0010A4EA001000F0C4B966
:101F700000F0DEB900F00EBE00F0F8B900F02ABAA9
:101F800000F05CBA00F070BA00F072BA00F086BAE5
:101F900000F08ABA00F0A6BA00F0C4BA00F0C6BADF
:101FA00000F0C6BA00F0DCBA00F0F4BA00F00EBBE4
:101FB00000F00EBB00F0B6BC00F0D4BC1A4B984247
:101FC00070B504460D4616460BD003F58053984273
:101FD00007D003F58053984203D003F57533984238
:101FE0001FD101212046FFF7D5FF00B170BD0821A8
:101FF0002046FFF75FFF0028F8D101462046FFF793
:102000005DFF0028F2D101462046FFF755FF00286A
:10201000ECD1324629462046FFF7A0FE00EAE070E8
:1020200070BD6FF0020070BD00200440294B984243
:102030000BD003F58053984207D003F580539842A4
:1020400003D003F5753398423BD1052310B44361A7
:10205000032A39D8DFE802F0151D280204681E4A59
:10206000B2FBF1F344F4403401FB1322046013B1DA
:10207000B2EB510F00D901335DF8044B0361FFF758
:10208000E7BE164B1A685208B2FBF1F301FB1322AC
:10209000EDE704686FF0020244F48034B2FBF1F320
:1020A000046001FB1322E2E704684FF4E10344F407
:1020B0000034B3FBF1F301FB03F2C2F5E10204606B
:1020C000D5E76FF0020070476FF002005DF8044B37
:1020D000704700BF002004400048E80108000020CD
:1020E0001F4B98420BD003F58053984207D003F55D
:1020F0008053984203D003F5753398422DD103687D
:1021000003F44033B3F5803F1BD0036813F4403F22
:1021100010D0036803F44033B3F5003F17D00368D1
:1021200003F44033B3F5403F17D10E4B0069B3FBC6
:10213000F0F070470C4B00691B685B08B3FBF0F0D4
:10214000704700696FF00203B3FBF0F0704700695D
:102150004FF4E103B3FBF0F070476FF002007047FB
:10216000002004400048E801080000200E4A904288
:1021700003460BD002F58052904207D002F5805200
:10218000904203D002F5753290420AD105390329F5
:1021900007D81A6822F4406242EA812100201960BF
:1021A00070476FF00200704700200440114B9842C6
:1021B0000BD003F58053984207D003F58053984223
:1021C00003D003F57533984202D161B1012903D0E0
:1021D0006FF00201084670470368002143F4805302
:1021E000036008467047036823F480530360084681
:1021F000704700BF002004402B4A904203460BD09A
:1022000002F58052904207D002F58052904203D0EE
:1022100002F57532904244D1042942D8DFE801F03A
:102220001117253303001A6842F010021A601A6869
:1022300042F020021A601A6842F0400200201A6040
:1022400070471A6822F0100200201A6070471A685E
:1022500042F010021A601A6822F020021A601A680E
:1022600022F0400200201A6070471A6842F0100203
:102270001A601A6822F020021A601A6842F04002BE
:1022800000201A6070471A6842F010021A601A683B
:1022900042F020021A601A6822F0400200201A6000
:1022A00070476FF00200704700200440114B9842C5
:1022B0000BD003F58053984207D003F58053984222
:1022C00003D003F57533984202D161B1012903D0DF
:1022D0006FF00201084670470368002143F4005381
:1022E000036008467047036823F400530360084600
:1022F000704700BF002004400C4B98420BD003F500
:102300008053984207D003F58053984203D003F5D9
:102310007533984204D14368DB0604D4006A7047E1
:102320006FF0020070476FF00C007047002004400F
:102330000D4B98420BD003F58053984207D003F51C
:102340008053984203D003F57533984206D1436811
:1023500013F0800305D10162184670476FF0020048
:1023600070476FF00B00704700200440F8B5184B21
:102370009842064617460BD003F58053984207D083
:1023800003F58053984203D003F57533984218D172
:10239000D1B1CFB13B68002B0FDD4D1E002405E00D
:1023A00005F8010F3B680134A34207DD3046FFF713
:1023B000E1FD0028F4DA3C60F8BD00243C60002018
:1023C000F8BD6FF00200F8BD4FF0FF30F8BD00BF60
:1023D00000200440F8B5184B9842064617460BD02B
:1023E00003F58053984207D003F58053984203D0F9
:1023F00003F57533984218D1D1B1CFB13B68002BAA
:102400000FDD4D1E002403E03B680134A34209DDCB
:1024100015F8011F3046FFF7ABFD0028F4D03C60F3
:10242000F8BD00243C600020F8BD6FF00200F8BD4C
:102430004FF0FF30F8BD00BF002004408AB110B457
:102440000139002305E00133046A01F8014F9A4283
:1024500003D04468E406F6D51A4610465DF8044BEE
:1024600070471046704700BF4068C0F303207047B4
:102470008AB110B40139002305E0013311F8014F8E
:1024800004629A4203D044682406F6D51A461046E0
:102490005DF8044B70471046704700BF4068C0F3BA
:1024A0000330C0F1080070470D4B98420BD003F584
:1024B0008053984207D003F58053984203D003F528
:1024C0007533984209D1036843F48073036003684D
:1024D00013F48073FBD1184670476FF00200704709
:1024E000002004400E4A904203460BD002F5805271
:1024F000904207D002F58052904203D002F5753227
:10250000904209D14A1E072A06D81A6822F00F0203
:1025100011430020196070476FF00200704700BF40
:1025200000200440006800F00F007047C06870474A
:102530000A4B98420BD003F58053984207D003F51D
:102540008053984203D003F57533984202D1C1609D
:10255000002070476FF00200704700BF0020044069
:102560000B4A904203460BD002F58052904207D0AE
:1025700002F58052904203D002F57532904204D1A8
:102580009A6811430020996070476FF0020070470D
:10259000002004400C4A904203460BD002F58052C2
:1025A000904207D002F58052904203D002F5753276
:1025B000904205D19A6822EA010100209960704793
:1025C0006FF00200704700BF002004404068704771
:1025D000F8B5794B04460068984200F0B58003F5E1
:1025E000805398425BD003F58053984200F0B2804C
:1025F00003F57533984240F0CE8003256F4F704E3F
:1026000057F82530002B51D056F825301BB12369DF
:10261000002B40F0B980E368002B40F0B580C4E99E
:1026200005332069002839D0A368002B00F0B98059
:102630002068614B984200F08F8003F580539842E8
:1026400000F08C8003F58053984200F0818003F500
:10265000753398420CBF03234FF0FF330B2146F82C
:102660002340FFF79FFC10212068FFF79BFC2068A8
:10267000FFF788FCA1692369A5685A1A824228BF1E
:10268000024629442068FFF77BFCA36902461344F5
:102690002068A3611021FFF783FC0020F8BD474F9D
:1026A000474E012557F82530002BADD156F825307F
:1026B000002B57D02369002B66D1E2680023C4E9C0
:1026C0000533002AADD06268002A67D020683A4AF4
:1026D00090420DD03B4B984242D003F58053984234
:1026E00034D003F5753398420CBF03234FF0FF330A
:1026F000402147F82340FFF755FC2068FFF746FCD0
:102700006169E3685A1A6368824228BF0246194425
:102710002068FFF739FC6369034463612068FFF7B1
:1027200035FC03287FF67DAF6269E3689A427FF447
:1027300078AF15B3012D2AD0022D0BBF04224FF024
:102740008072012502251AE0002557E70223CFE712
:10275000022383E7022551E700237FE701237DE77A
:102760000123C5E74FF0FF31FFF71EFC20684FF053
:10277000FF31FFF715FCE268A0E74FF48042124BEF
:10278000403543F825204CE76FF00500F8BD4FF4C5
:1027900000420025F3E76FF00300F8BD6FF0020080
:1027A000F8BD4FF0FF312068FFF7FEFB2068FFF710
:1027B000EFFB6FF00200F8BD00200440E40B0020A6
:1027C000D40B00200030044000E100E038B5134B8A
:1027D00098421AD003F58053984214D003F58053E1
:1027E000984216D003F57533984214D103220C4B4E
:1027F00053F8220030B1C5694DB1002443F822409E
:10280000A847204638BD0122F1E70022EFE728461D
:1028100038BD0222EBE76FF0020038BD0020044013
:10282000E40B002038B5134B98421AD003F58053BF
:10283000984214D003F58053984216D003F57533AF
:10284000984214D103220C4B53F8220030B1C569D1
:102850004DB1002443F82240A847204638BD01224C
:10286000F1E70022EFE7284638BD0222EBE76FF0E0
:10287000020038BD00200440D40B002030B5184BB6
:10288000984283B0044626D003F5805398421ED068
:1028900003F5805398421CD003F5753398421CD140
:1028A000032520460191FFF791FF0E4A0E4B52F887
:1028B000252053F825309A4206D001992046FFF78B
:1028C000B1FF002003B030BD002003B030BD0125B2
:1028D000E7E70225E5E70025E3E76FF00200F1E70F
:1028E00000200440D40B0020E40B002008B50C4B62
:1028F00098420BD003F58053984207D003F58053DC
:10290000984203D003F57533984205D14FF0FF315B
:10291000FFF74AFB002008BD6FF0020008BD00BFB2
:10292000002004400E4B984210B504460BD003F52E
:102930008053984207D003F58053984203D003F5A3
:102940007533984209D12046FFF772F96FF00F01F5
:102950002046FFF76BF9002010BD6FF0020010BD9C
:1029600000200440884B98422DE9F047054600F0CE
:10297000C18003F58053984276D003F58053984286
:1029800000F0998003F57533984240F0E8804FF0ED
:102990000308DFF8F8912846FFF700FB59F8286094
:1029A00004461EB3AB68034013F00B0F40F0DA800F
:1029B000F368002B5BD1DFF8D8A15AF828706FB10B
:1029C000E30623D45AF8282059F82860964200F0EC
:1029D000948091691269914273D026B17269F3684B
:1029E0009A4200F09D800020BDE8F087DFF8A0A1AA
:1029F0005AF82870002F00F0C080AB68034013F035
:102A00000B0F40F0AF8010F0100357D03B69002B44
:102A1000D8D03868FFF7B6FABB693A69B968D31AF3
:102A2000834238BFB869BB6938BF101A02461944DF
:102A30003868FFF7A5FABB691844B861BC693B69FF
:102A400038681C1BFFF7A8FA8442C0F08180386800
:102A50001021FFF7A5FA5AF8282059F82860B24249
:102A60004BD0002AB5D1B8E74FF0010891E73068A4
:102A7000DFF81CA1FFF78AFA7369F2687168D31A4C
:102A8000834238BF7069736938BF101A024619440F
:102A90003068FFF779FA7369184470614021306833
:102AA000FFF77EFA5AF82870002F89D159F828606C
:102AB000002E98D092E74FF002086AE73A461E4689
:102AC00087E7314B9D420BD003F580539D4207D0E1
:102AD00003F580539D4203D003F575339D4203D126
:102AE0000B212846FFF760FA00212846FFF79AFEDF
:102AF000002079E74FF000084BE7BA693B699A423A
:102B00007FF471AF7A69FB689A427FF46CAF284614
:102B1000FFF78EF800212846FFF788F8002063E7CA
:102B2000194B9D420BD003F580539D4207D003F50E
:102B300080539D4203D003F575339D4203D140215C
:102B40002846FFF731FA00212846FFF73FFE4AE703
:102B5000BB6939693868C91AFFF71CFA77E76FF063
:102B6000030041E72846FFF763F86FF008012846A5
:102B7000FFF75CF86FF0030036E7E9682846FFF7D7
:102B80000FFA6FF003002FE700200440E40B002051
:102B9000D40B002010B504462046FFF7F3F90028B7
:102BA000FAD02046BDE81040FFF7E0B938B54FF045
:102BB000E02318499C691A6922F480320A601A6974
:102BC000D20723D46FF07F4405225C614FF08075FB
:102BD0009C611A61104B114A19680023A0FB010186
:102BE00005F0BAF80E4BB0FBF5F205FB120084427B
:102BF0001A6007D81A6801321A602C44094B201A4F
:102C0000186038BD074B201A186038BD5D69013562
:102C1000E0E700BFF80B00200800002040420F0052
:102C200004000020FC0B002070B54FF0E024236965
:102C3000DB0306D50E4D2B68002B03DD2B68013B13
:102C40002B6070BD0B4E33685BB16FF00F0098477F
:102C5000094A00233360126822614FF0FF332B6072
:102C600070BD054A4FF0FF33126822612B6070BDC2
:102C700004000020F40B0020F80B002010B50C4CD1
:102C80000C4B22681960002A0FDC08B9002010BD27
:102C9000FFF78CFF2368002BF8DD4FF0E0220020C7
:102CA000136943F00203136110BD6FF0050010BDFE
:102CB00004000020F40B0020F8B5174C2368002B0B
:102CC0001EDB26682EBB154B4FF0E0251B68AA695A
:102CD0009A421ED8124F3B685BB16FF00F009847C5
:102CE000104B3E601A682A614FF0FF3323600020CA
:102CF000F8BD0C4A4FF0FF3312682A612360F6E7F3
:102D0000074C2368002BF2D0002098470020206059
:102D1000F8BD6FF00500F8BD04000020FC0B00209A
:102D2000F40B0020F80B002010B5094C236823B1E8
:102D30006FF00F00984700232360064A064B106887
:102D40004FF0E0214FF0FF3208611A6010BD00BF64
:102D5000F40B0020F80B00200400002038B5184CBC
:102D60002268002A29DC00B938BDFFF71FFF4FF0A9
:102D7000E02202E01369DB031BD42368002BF9DC9B
:102D8000104B1A684FF0E0218B699342FCD80E4D2E
:102D90002B6823B16FF00F00984700232B600B4B7B
:102DA0004FF0E022196811614FF0FF3300202360DB
:102DB00038BD2368013B2360DFE76FF0050038BDB5
:102DC00004000020FC0B0020F40B0020F80B002076
:102DD0003F2809D90E4A4038D168C0B2012303FA0E
:102DE00000F00843D06070471F284FF0804208D998
:102DF0002038916CC0B2012303FA00F008439064BC
:102E00007047516A012303FA00F00843506270478B
:102E1000000008403F280AD910494038CB68C0B2AA
:102E2000012202FA00F023EA0000C86070471F2860
:102E30004FF0804109D920388B6CC0B2012202FAD0
:102E400000F023EA0000886470474B6A012202FA0E
:102E500000F023EA00004862704700BF000008400D
:102E6000023810B5052877D8DFE800F00827374B7F
:102E70005F03BDE810403A4800F0DEBA4FF08044EE
:102E8000384A636F42F2881143F01103636791611E
:102E9000A36843F480330021A3604FF47A70FFF7F6
:102EA000EDFE03E0FFF708FF063052D1A368DA0118
:102EB000F8D5FFF739FF002010BD00214FF47A70DC
:102EC000FFF7DCFE4FF0804403E0FFF7F5FE06302D
:102ED0003FD1A3689900ECD4F7E74FF0804400217C
:102EE000A36843F40023A3604FF47A70FFF7C6FE93
:102EF00003E0FFF7E1FE06302BD1A3681B01F8D5F4
:102F0000D7E74FF080440021A36843F48013A36007
:102F10004FF47A70FFF7B2FE03E0FFF7CDFE063004
:102F200017D1A368D800C4D4F7E74FF0804400213C
:102F3000A36843F40033A3604FF47A70FFF79EFE5A
:102F400003E0FFF7B9FE063003D1A3689B01B0D4BC
:102F5000F7E76FF0090010BD6FF0020010BD00BF71
:102F600044EA00100008004038B54FF080439D68E7
:102F7000072877D8DFE800F05A7667232C3B4B040C
:102F80006E4800F059FAC8B94FF08042936843F494
:102F90006063936000214FF47A70FFF76FFE4FF08B
:102FA000804403E0FFF788FE06305ED1A3689B04EF
:102FB000F8D5FFF7B9FE00F0C7FC002038BD4FF090
:102FC0008042936823F4606343F4C0639360E1E755
:102FD0004FF08044A16811F4002150D04FF080429E
:102FE000936823F4606343F400639360D2E74FF087
:102FF0008044A16811F4801100F08D804FF0804270
:10300000936823F4606343F420639360C2E74FF056
:103010008044A16811F400316AD04FF08042936877
:1030200023F4606343F440639360B3E74FF080445C
:10303000A16811F4802148D04FF08042936823F4B6
:1030400060639360A6E74FF08044A16811F480317B
:1030500028D04FF08042936823F4606343F4806388
:10306000936097E76FF0020038BDA36805F46065D0
:1030700023F460632B43A3606FF0090038BDA3689D
:1030800043F40023A3604FF47A70FFF7F7FD03E0E9
:10309000FFF712FE0630EFD1A3681B01F8D5FFF74A
:1030A00043FE9BE7A36843F48033A3604FF47A7038
:1030B000FFF7E4FD03E0FFF7FFFD0630DCD1A36876
:1030C000D901F8D5FFF730FEC3E7A36843F48023A6
:1030D000A3604FF47A70FFF7D1FD03E0FFF7ECFD3A
:1030E0000630C9D1A3685A01F8D5FFF71DFEA3E742
:1030F000A36843F40033A3604FF47A70FFF7BEFD7A
:1031000003E0FFF7D9FD0630B6D1A3689A01F8D5E0
:10311000FFF70AFE81E7A36843F48013A3604FF42E
:103120007A70FFF7ABFD03E0FFF7C6FD0630A3D1D1
:10313000A368D800F8D5FFF7F7FD5FE744EA001071
:103140004FF08042936803F4E073984208D093688C
:1031500000F4E07023F4E0731843906000F0F4BBD7
:10316000704700BF3F280AD94038114AC0B2012336
:1031700003FA00F0906093681842FCD170471F2852
:103180000BD92038C0B201234FF0804203FA00F07F
:103190005064536C1842FCD1704701234FF08042B9
:1031A00003FA00F0506053681842FCD1704700BF2A
:1031B0000000084050E8003F3BB940E80013002BF6
:1031C000F8D1BFF35F8F184670476FF00500704766
:1031D000BFF35F8F00230360704700BF01460148C3
:1031E00000F020B8004400400146014800F032B829
:1031F000004400400146014800F044B8004400404B
:10320000014800F057B800BF00440040014800F0FA
:1032100059B800BF00440040014800F05BB800BF4F
:103220000044004042680A4B12F0800F14BF4FF474
:10323000167C4FF4FA7C4268A1EB0C01A3FB01134E
:10324000C3F3C60322F07F02134343604360704719
:10325000CDCCCCCC82680A4B12F0800F14BF4FF457
:10326000167C4FF4FA7C8268A1EB0C01A3FB0113DE
:10327000C3F3C60322F07F02134383608360704769
:10328000CDCCCCCCC2680A4B12F0800F14BF4FF4E7
:10329000167C4FF4FA7CC268A1EB0C01A3FB01136E
:1032A000C3F3C60322F07F021343C360C3607047B9
:1032B000CDCCCCCC036C13F0010F0CBF6FF006002B
:1032C00000207047036C13F0020F0CBF6FF0060074
:1032D00000207047036C13F0040F0CBF6FF0060062
:1032E00000207047D0F80031012223F00103C0F81C
:1032F0000031C0F80027D0F80031DA03FBD5D0F850
:10330000003143F00103C0F80031D0F80031DB0395
:10331000FBD57047FFF7E6BF0146014800F014B83F
:10332000006000400146014800F028B800600040FD
:10333000014800F03DB800BF006000400146014870
:1033400000F03AB80060004011F0260C10D00A4A94
:1033500013691B07FCD4036943EA0C03036111F0F2
:10336000060007D0044B186910F00800FBD1704725
:103370006FF00200704700BF0060004011F0260CA3
:1033800010D00A4A13691B07FCD4036923EA0C0313
:10339000036111F0060007D0044B186910F0080013
:1033A000FBD170476FF00200704700BF0060004023
:1033B000006900F0D0007047036901F0D00123EAF2
:1033C0000103036100207047C36843F00113C36029
:1033D000704700BF836943F001238361704700BFDA
:1033E000836923F001238361704700BFFFF7ECBFBF
:1033F000FFF7F0BFFFF7F4BFC10710B5044608D4CC
:10340000A2070BD463070ED42046BDE8104000F09D
:1034100087B90020FFF7FEFCA207F3D50120FFF7D4
:10342000F9FC6307F0D54020FFF7F4FC2046BDE827
:10343000104000F075B900BF70B5804B05689D4223
:10344000044637D003F580539D4220D003F5EE2388
:1034500003F580639D4200F08180794885420CBF6E
:1034600008200020FFF7C8FF754B22689A4215D04C
:103470006268217A284600F01DF9D0B9637A042BDE
:1034800000F2D980DFE803F05A4C3E2F18000220EA
:10349000FFF7B2FF6A4B22689A42E9D1237A012BE7
:1034A00000F0BD80022B00F0A780002B58D06FF0F9
:1034B000100070BD0120D5E72B6E626823EA02037D
:1034C0002B666B6E13436B66D5F8B83023EA0203A4
:1034D000C5F8B8305A4BA17A9D4239D02846BDE88C
:1034E000704000F0CFB82B6E626813432B666B6E92
:1034F00023EA02036B66D5F8B83023EA0203C5F865
:10350000B830E7E72B6E626823EA02032B666B6E26
:1035100013436B66D5F8B8301343C5F8B830D9E714
:103520002B6E626813432B666B6E23EA02036B6695
:10353000D5F8B8301343C5F8B830CBE72B6E6268C6
:1035400023EA02032B666B6E23EA02036B66C1E774
:1035500000290CBF6FF01000002070BD042081E72F
:103560006368384958001A010E6A00F0020002F040
:103570002002024326EA02020A628A68C3F3400379
:10358000034322EA03038B60637A042B8FD8DFE8BE
:1035900003F0261B031B030062682A49D300086A54
:1035A00003F0100302F00106334320EA03030B6229
:1035B00056019300086A03F0040306F04006334303
:1035C00020EA03030B6285E71E4962680E6AD30096
:1035D00002F0010003F0100330430343E7E76268A1
:1035E000184893005101066A03F0040301F04001FA
:1035F0000B43334303626DE76368124958001A01B5
:103600000E6A00F0020002F02002024332430A6216
:103610008A68C3F34003034313438B60B4E76368D2
:10362000084958001A010E6A00F0020002F0200258
:1036300002433243A0E76FF0020070BD00800040FB
:1036400000060840006C004000F07CB8034A90423D
:1036500001D000F013B8024AD1617047000608405B
:1036600000680040034B984201D000F009B8024BBB
:10367000D8697047000608400068004081647047C0
:10368000006C704769B1012907D1D0F8C030002122
:103690001A43C0F8C020084670476FF00201084680
:1036A0007047D0F8C03023EA0202C0F8C0200846B4
:1036B000704700BF0346006B104318635A6005292A
:1036C0002AD8DFE801F00A12141B2203C3F888206D
:1036D00000209A67DA669A6070475A615A60002043
:1036E0001A67DA67C3F8882070471A61F6E7C3F8EB
:1036F00088200020DA671A679A607047C3F888202C
:103700000020DA67DA669A607047C3F888200020E4
:103710009A671A679A6070476FF00200704700BF9F
:1037200010B5064C217831B905484FF4007205F008
:1037300061F801232370002010BD00BF001000209D
:10374000000C002070B5054640B1012823D00228A6
:1037500023D00328124E18BF002600E0114E304639
:10376000FFF780FF044601463046FFF76FFF8CB13C
:103770000D4E0E4B06EBC51603EBC515E30703D53F
:103780002B680BB130689847640806F1040605F110
:103790000405F3D170BD064EE1E7064EDFE700BF3A
:1037A0000006084000800040000E0020000C0020B1
:1037B00000900040000408404A4885464A48804737
:1037C00080B94A494A4A4B4B9B1A03DD043BC8580F
:1037D000D050FBDC4849494A00209142BCBF41F827
:1037E000040BFAE7464880474648804746488047EA
:1037F000FFF7FEFFFEE7FEE7FEE7FEE7FEE7FEE778
:10380000FEE7FEE7FEE7FEE7FEE7FEE7FEE7FEE790
:10381000FEE7FEE7FEE7FEE7FEE7FEE7FEE7FEE780
:10382000FEE7FEE7FEE7FEE7FEE7FEE7FEE7FEE770
:10383000FEE7FEE7FEE7FEE7FEE7FEE7FEE7FEE760
:10384000FEE7FEE7FEE7FEE7FEE7FEE7FEE7FEE750
:10385000FEE7FEE7FEE7FEE7FEE7FEE7FEE7FEE740
:10386000FEE7FEE7FEE7FEE7FEE7FEE7FEE7FEE730
:10387000FEE7FEE7FEE7FEE7FEE7FEE7FEE7FEE720
:10388000FEE7FEE7FEE7FEE7FEE7FEE7FEE7FEE710
:10389000FEE7FEE7FEE7FEE7FEE7FEE7FEE7FEE700
:1038A000FEE7FEE7FEE7FEE7FEE7FEE7FEE7FEE7F0
:1038B000FEE7FEE7FEE7FEE7FEE7FEE7FEE7FEE7E0
:1038C000FEE7FEE7FEE7FEE7FEE7FEE7FEE7FEE7D0
:1038D000FEE7FEE7FEE7FEE7FEE7FEE7FEE7FEE7C0
:1038E000FEE7FEE700C00120C139001058F60010C5
:1038F00000000020A40A0020A80A0020681100206F
:103900000D3A0010F9800010116A00100B4A08B53A
:103910000346106828B10A4903448B4207D8136054
:1039200008BD08480649106003448B42F7D904F0EB
:10393000DDFB0C2303604FF0FF3008BD04100020B6
:1039400000B00120681100204FF080439A6802F413
:103950006062B2F5206F26D010D8B2F5806F20D00B
:10396000B2F5C06F14D14FF4FA534FF080420F49B3
:103970009268C2F38212D3400B607047B2F5406F79
:103980000CD00B4B0B49B2F5606F08BF0B46ECE750
:10399000074B0949002A08BF0B46E6E74FF40043EE
:1039A000E3E7064BE1E74FF4E103DEE70800002020
:1039B00000E1F505C0687804008793030048E8013A
:1039C0004FF0804010B4816884680E4A44F4E0747B
:1039D00001F4E0718460136CDC07FCD5094A136CB8
:1039E0009807FCD5074A136C5B07FCD54FF0804263
:1039F000002093685DF8044B23F4E0730B4393605D
:103A0000704700BF00440040704700BF10B51B4C1A
:103A10001B4BA36062B61B48FFF77CFCD4F88830D0
:103A200043F47003C4F88830BFF34F8FBFF36F8F38
:103A300040F2D660FFF7D2FBFFF7E2FB0028FBD194
:103A400040F24C40FFF7D0FBFFF7E0FB0028FBD132
:103A500040F24C40FFF7CEFBFFF7DEFB04460028A8
:103A6000FAD10420FFF780FA2046FFF769FBFFF741
:103A70006BFF01F09FFCFFF7C7FF10BD00ED00E0FA
:103A80000000001000A002400020FFF7DDBD00BFD5
:103A90000120FFF7D9BD00BF0220FFF7D5BD00BF51
:103AA000174A416838B552F821304569013B42F860
:103AB00021300446B3B92868FDF756FAC8B96368DF
:103AC00033B1012B16D0022B16D00346012101E0A1
:103AD0004FF400510B4A203342F82310BFF34F8FAD
:103AE000BFF36F8F2846FCF7ABFB2046FCF7A8FB23
:103AF000002038BD1021EDE74FF080410123E9E7B8
:103B00000810002000E100E030B589B0002832D074
:103B10004469002C2FD04568DDB9184D0491B3FAE3
:103B200083F35B090021CDE90523CDE90211237A56
:103B3000027B009501921BB162680691CDE90223D8
:103B40006846FDF79BFA237A05464BB9284609B02B
:103B500030BD012D0DD0022D094D18BF0025DDE728
:103B60006068FCF76DFB002328462372636009B090
:103B700030BD044DD2E76FF01505E7E700D00140F6
:103B800000F0014000E0014000283CD070B54669DB
:103B900088B0002E34D0144642680D46A2B1012AE6
:103BA0002CD0022A194A18BF002283B970683472D7
:103BB000D8B1214604F0D2FE70602246294604F0B6
:103BC0007FFD002008B070BD114A002BEED0017BB4
:103BD00000236846CDE90021CDE90254CDE9045324
:103BE0000693FDF74BFA08B070BD2046FCF724FBA6
:103BF00070600028E1D16FF00B00E3E7054AD4E7DD
:103C00006FF01500DEE76FF01500704700F001401F
:103C100000D0014000E001402DE9F04784B00028C9
:103C200047D00C46002944D00B69002B41D00B68CB
:103C3000022B3ED8054618210120FCF7FFFA286028
:103C4000002800F08C800C210120FCF7F7FA0646D2
:103C5000002844D02268D4F81090002A2FD1414F78
:103C6000616841482B68376081425A6002D93F48F9
:103C700081422BD8DFF81481986058F822A0227A6C
:103C80001A735E61BAF1000F09D13846FDF76CF97D
:103C9000524601213846FDF793F9002859D12B6887
:103CA00099F800605B68012B4BD0022B20D0002BD1
:103CB00041D06FF01504204604B0BDE8F087012A1A
:103CC00045D0022A2A4F18BF0027C9E72948814258
:103CD000D0D929488142CDD96FF015043BE06FF06F
:103CE0000B042868FCF7ACFA204604B0BDE8F08766
:103CF000224A07CA01AB83E8070018468DF80E6018
:103D0000FFF79AFB3846FDF7A7F92B689B68014639
:103D1000994228BF19463846FDF79CF90028C8DBB0
:103D2000226858F8223000240133204648F8223017
:103D300004B0BDE8F087124A07CA01AB83E8070068
:103D4000DBE7104A07CA01AB83E80700D5E70E4F4F
:103D500086E74FF0FF343046FCF772FAC1E76FF0A8
:103D60000B04A8E700D00140A0860100801A0600DD
:103D700000F0014040420F0040E1330068EA0010CB
:103D800050EA00105CEA001000E00140081000203A
:103D90000148FDF779B900BF00D001400148FDF7A7
:103DA00073B900BF00E001400148FDF76DB900BFE5
:103DB00000F00140F0B5C169037B0D688BB0B3FA28
:103DC00083F1012249098DF81D10991AB1FA81F188
:103DD0004909A3F102030446B3FA83F38DF81E10D8
:103DE00069798DF81C2000205B09091A8DF81F30B5
:103DF00063688DF8202018BF01218DF824108DF8FC
:103E000021208DF822008DF82300002B34D093421E
:103E1000254E18BF06460AAA12E907000DF1080C44
:103E20002B68A768ACE803008CF8002001972A797A
:103E30000092012100223046FCF7F4FC38BB636895
:103E4000E3B91A48617BFCF75FFE00BB6368D3B13E
:103E5000012B154818BF00200121FCF753FEB0B913
:103E6000636893B1012B104818BF00200821FCF7AC
:103E700045FE60B90BB0F0BD0C4ECCE7012B0A48F3
:103E800018BF0020DEE70948E6E70848EEE7636868
:103E90002BB90648FCF7D8FD6FF01500EAE7012BB7
:103EA000014818BF0020F5E700E00B400060044027
:103EB00098B1436810B5044653B90948FCF7C4FDEE
:103EC000E069FCF7BDF92046FCF7BAF9002010BD07
:103ED000012B044818BF0020F0E76FF01500704771
:103EE0000060044000E00B402DE9F04F064689B029
:103EF0000D46029373689DF84C0001909046002B8C
:103F000000F00181012BA04C18BF0024DFF888A22B
:103F100096F80C905AF82330D6F81CB04B450BD0CD
:103F20003046FFF747FF0746002840F0E8807368F7
:103F30004AF8239096F80C906368012723F47023C5
:103F4000636007FA09F14FF47020FCF721FC636805
:103F50001843606024214046FCF770F9824600282F
:103F600000F00F8124214046FCF768F900900028FA
:103F700000F0CB8038461C21FCF760F98146002810
:103F800000F0CB80E36943F08013E361236A43F4DC
:103F9000006323622B7B002B00F0BA80636823F45C
:103FA00080736360A968A160E369784843F04003C7
:103FB000E361FCF7EDFBA3681843A060E369DBF85D
:103FC0000C0043F48003E361E36943F08023E36181
:103FD00006A901F011FD0746002840F08780DBF8B4
:103FE0000C0007A901F008FD0746002879D1009BC5
:103FF000C9F80060C9E9033A079BC9F80830069B75
:104000000393C9F80430019B2BB1029BC9F814300B
:10401000129BC9F81830B8F1000F41D0DBF800301E
:10402000009ADBF814E00494D3E9037108EBC806A6
:10403000DBF81030029302EB8606134674465246B4
:10404000DDF808E0CDF814A0CDF808B0B24608209D
:104050004FF0010CBB460E4629684D4FC3E90014D2
:10406000A9681877C3F8149083F80CC01F616F68B3
:1040700099609E612433C2E901719A454FF00201B3
:10408000C2F800E010771173C2F818B005F11C05F2
:1040900002F12402E0D1049CDDF808B0DDF814A0A0
:1040A000039BDBF80C000099424601F0E9FC07464F
:1040B00090B9079BDBF80C004246514601F0E0FC4A
:1040C000074668B30699DBF80C0001F07FFD0799FD
:1040D000DBF80C0001F07AFD0799DBF80C0001F029
:1040E000B1FCDBF80C00069901F0ACFC4846FCF78B
:1040F000A7F80098FCF7A4F85046FCF7A1F838465A
:1041000009B0BDE8F08F234C00E76FF00B07F3E731
:10411000636843F48073636044E76FF00B07E8E77C
:1041200063680799DBF80C0043F02003636001F03B
:104130002BFD07460028C5D10699DBF80C0001F0DD
:1041400023FD07460028BDD1019B002BD7D107993D
:10415000DBF80C0001F09EFD0028F8D00699DBF892
:104160000C0001F097FD0028F1D0236BDB07FCD495
:10417000636823F020036360E36923F04013E36185
:10418000BDE76FF00B07BAE700E00B400000FFFF50
:10419000C5410010006004401410002010B582B02A
:1041A000049C009401240194FFF79EFE02B010BD10
:1041B00000B5002383B0CDE90033FFF795FE03B0CF
:1041C0005DF804FBF8B5136814465A68DD690F46BC
:1041D00012B3012A1C4E18BF002604E06168E8688B
:1041E00001F05EFD28B1A168E86801F059FD0028E2
:1041F000F4D1336BDB07FCD487B1B968B3681348DB
:104200000B43B360FCF7C4FAB3681843B06073683B
:1042100043F020037360F8BD0D4EE4E763690BB112
:10422000A0699847606801F0A1FCA06801F09EFCBD
:10423000E068FCF705F82069FCF702F82046BDE8C5
:10424000F840FBF7FDBF00BF00E00B400000FFFFA0
:10425000006004402DE9F04F436885B083460C466A
:104260000192002B00F02581012B984D18BF0025ED
:10427000002C00F02481964F9BF80C6057F82330F7
:10428000B3420BD05846FFF795FD002840F0E2807E
:10429000DBF8043047F823609BF80C606B68012161
:1042A00023F470236B60B1404FF47020FCF770FA78
:1042B0006B681843019B68604FF0000A002B00F008
:1042C000C880EB6943F08013EB612B6A002243F452
:1042D00000632B62AA60237B002B00F0CC806B680C
:1042E00023F480736B606369DBF81460DBF81C9067
:1042F000A2694FF47A7808FB0366DBF8183008FBF4
:104300000238D9F804309E4200F0C380DBF8043054
:10431000002B00F0BC80012B40F0D4806B4F3B6938
:1043200003933846FCF7ACFBD9F80430694A9E4247
:1043300002EB5002B2FBF0F213D0002E00F0AF807F
:10434000B6FBF2F1FF2900F2AE803B69029223F046
:10435000FF033B61FF20FCF71BFA3B69029A1843FD
:104360003861D9F80830984513D0B8F1000F00F043
:104370009880B8FBF2F1FF2900F29D803B6923F49D
:104380007F433B614FF47F40FCF702FA3B691843DF
:104390003861C9E901682168002974D0A268AA605F
:1043A000EB6943F04003EB612846FCF7B3FBA368DD
:1043B000A3EB0009B9FA89F906464FEA591963686F
:1043C000002B5DD0A1684448FCF7E2F9AB681843C4
:1043D000A860EB6943F48003EB614FF000086B6861
:1043E00043F020036B600027B8F1000F02D0B9F151
:1043F000000F18D1216811B1A268B2422DD86168AE
:104400000029F1D0A268BA42EED9D21B394428461D
:10441000FCF77CFBA3680744A3EB0708B8FA88F80D
:104420004FEA5818E0E72B6A1B05FCD56B6823F0B0
:1044300020036B60EB691C3423F04013EB6154F8EC
:104440000C0C00F0C9FF019B0AF1010A53457FF4EF
:1044500038AF002005B0BDE8F08F921B31442846EC
:10446000FCF758FBA3680644A3EB0609B9FA89F9DF
:104470004FEA5919C3E76B6843F480736B6032E706
:104480004FF00108ABE74FF001090E4697E7134FD5
:1044900045E7D9F8083098457FF438AF7BE701212C
:1044A00053E701216AE70E4804F050FA039B3B6191
:1044B00071E70A4DDCE60B4804F048FAF6E76FF0C6
:1044C0001500C7E700231B69FFDE00BF00E00B40BB
:1044D0001C10002000CA9A3B0000FFFF006004404F
:1044E000FCEA001028EB001010B588B00023CDE9DD
:1044F0000111144601A90122CDE90433CDE90633A7
:1045000003948DF81020FFF7A5FE08B010BD00BF82
:104510002DE9F04100294DD08B690E46002B49D082
:10452000804624210120FBF789FE0446002849D05B
:1045300018210120FBF782FE0546002837D033689A
:104540007268B7696360A260327A2273727A6273AA
:10455000B27AA273012B0760E0610AD96FF01506E9
:104560002846FBF76DFE2046FBF76AFE3046BDE8A5
:10457000F0812046FFF71EFC06460028F0D1B968FE
:1045800091B1D7E903239A42E8D205F10C0001F07A
:10459000C5F908B10646E3E76368E2696BB1012B30
:1045A00002D1136121235361C8F80040DEE76FF0A8
:1045B0000B06D5E76FF01506D8E70F232F21C2E9C8
:1045C0000431F1E76FF00B06D0E700BF704700BF82
:1045D0006FF05700704700BF00282ED069B362B358
:1045E00070B5007940B1012823D0022823D00328D8
:1045F000134D18BF002500E0124D134C134B1E78CD
:1046000004EB40131A6142019960A55000225A60E0
:10461000DA609A610E4ADA610EB1002070BD04EBD7
:104620004010FDF7C5FC063008BF6FF00F00F4D155
:1046300070BD084DE1E7084DDFE76FF015007047EA
:1046400000140840002004402810002025100020FD
:1046500085520010003004400040044000282ED055
:1046600069B362B370B5007940B1012823D0022844
:1046700023D00328134D18BF002500E0124D134C22
:10468000134B1E7804EB4013DA6042015960A550C9
:1046900000229A601A615A610E4ADA610EB1002056
:1046A00070BD04EB4010FDF783FC063008BF6FF0CF
:1046B0000F00F4D170BD084DE1E7084DDFE76FF062
:1046C0001500704700140840002004402810002006
:1046D00025100020855200100030044000400440A6
:1046E000F0B585B0057900214FF481730291CDE9D1
:1046F00000110446ADF80830002D3CD0012D62D0E9
:10470000022D7CD0032D6BD0C06803912E46F0B1F2
:10471000A769386801F0B8F823793868002B39D1D7
:104720000E216A4601F098F8386801F077F8E068E1
:10473000FBF7D8FDE068FBF783FD002D3FD0012D8E
:1047400059D0022D4AD0032D324818BF0020324BD9
:104750007201985003EB4613304ADA61FDF72AFCE8
:10476000237903B3012B2CD0022B46D0032B2948ED
:1047700018BF002018E0C66829480390002EE6D034
:10478000A76938682E460E2101F07EF82379386833
:10479000002BC5D0012B2CD0022B1DD0032B0CBF1E
:1047A00058210021BDE71E48FDF744FAA069FBF738
:1047B00047FD2046FBF744FD002005B0F0BD18483A
:1047C000C5E71848F0E7C3681648039003B3A76924
:1047D0002E4638680F21D7E72221A2E71248B6E714
:1047E000C3680C4803909BB1A7692E4638685821CE
:1047F000CAE70F2195E70B48A9E70B48D4E7C36840
:104800000948039023B1A7692E4638682221BBE7E7
:104810002E469CE70014084028100020CD450010CB
:1048200000200440003004400040044070B582B0D5
:104830000192002835D00E46002932D0002A30D00F
:104840000546C068A8B1002404E0019B0134A342DE
:104850000CD9E8683119FBF71DFD0028F5D0002CB4
:1048600014BF20466FF00A0002B070BD204602B0AF
:1048700070BD2B7943B1012B0FD0022B0FD00C4A06
:10488000032B08BF104600E00A4801AA3146FDF795
:1048900073FB48B9019802B070BD0748F5E70748B7
:1048A000F3E76FF01500DFE76FF00400DCE700BF0F
:1048B0000014084000200440003004400040044040
:1048C0002DE9F04F8BB0002962D08B690C46002B8C
:1048D0005ED080461C210120FBF7B0FC0546002875
:1048E00000F0E58004210120FBF7A8FCA8612278F4
:1048F0000746D2B9DFF80C92A3692A71E1682961F1
:10490000667C032E47D0042E1AD0D6B16FF0150660
:104910003846FBF795FC2846FBF792FC4846FDF726
:1049200089F930460BB0BDE8F08F012A35D0022A54
:1049300036D06D4B032A0CBF99464FF00009DBE7D8
:10494000022694F810A0BAF1030FDFD894F812B041
:10495000BBF1000F02D0BBF1010FD7D11A7812B30F
:10496000013A012AD2D8012200920022484601933E
:10497000FDF798F90028C9D1019B93F801C02B7964
:10498000012B12D0022B00F08C80002B00F08380D2
:104990006FF01506C5E70426D3E7DFF86C91ABE7A7
:1049A000DFF86891A8E70092DFE7504A07CA06AB34
:1049B00083E8070018468DF822C00193FEF73CFDFE
:1049C0000AF105014846FDF775FA00289ED13146E7
:1049D0004846FDF773FA002898D159464846FDF736
:1049E0006BFA002892D1009908224846FDF768FA30
:1049F000064600288AD1227A019BC8F80050002A76
:104A00008FD005F10C000093FBF724FC064600282C
:104A10007FF47EAF364A0390059003A9384604928E
:104A200000F0E2FE064600287FF472AF314A06929B
:104A30004FF481720795ADF820202A79009B002A57
:104A400038D0012A3DD0022A49D0032A42D0002181
:104A5000386809911A4600F0F3FE0646B8B92B797A
:104A6000386863B3012B31D0022B31D0032B0CBF3C
:104A70005821002100F0FCFE064640B91E490122E3
:104A80002846FFF7A9FD064600283FF44AAF3868DC
:104A900000F0C4FE3CE7194A07CA06AB83E80700EA
:104AA00088E7174A07CA06AB83E8070082E76FF07A
:104AB0000B0636E7134A386809920E21CAE70E2121
:104AC000D8E7114A386809920F21C3E70F21D1E7CF
:104AD0002221CFE7044A386809925821BAE70B4AE5
:104AE000386809922221B5E70014084098EA0010BE
:104AF0008CEB0010D54B00102410002074EA00103D
:104B0000BCEA001000200440003004400040044093
:104B10002DE9F04F83B0002850D08A4600294DD0AF
:104B20001646002A4AD0274DDFF89C90DFF89C807B
:104B3000DFF89CB004460027082E334628BF082320
:104B4000019309E0022B2BD0032B0CBF4046002021
:104B5000FDF72CFA43060AD423792846002BF7D018
:104B6000012BEFD14846FDF721FA4306F4D523790E
:104B7000C3B1012B18D0022B18D0032B0CBF404619
:104B800000200AEB070101AAFDF7F8F9019B1F4479
:104B9000F61A68B9002ECFD1384603B0BDE8F08FC1
:104BA0005846D5E72846ECE74846EAE75846E8E79E
:104BB0006FF00407384603B0BDE8F08F6FF01507BB
:104BC000EAE700BF00200440003004400014084021
:104BD0000040044070B5164D04462978C068FBF7C4
:104BE0006DFB227942B1012A1ED0022A1ED0032A6F
:104BF000104B18BF002300E00F4B10485101012655
:104C000043500F4B1C7800EB421300215960D960D0
:104C100099610C499D601E61D96104B170BDBDE808
:104C200070401846FDF7C4B9074BE6E7074BE4E7C9
:104C30002410002000140840002004402810002008
:104C40002510002085520010003004400040044030
:104C5000022801D80020704708B503F047FA09235D
:104C600003604FF0FF3008BD022801D801207047D3
:104C700008B503F03BFA09230360002008BD00BF1C
:104C800008B503F033FA092303604FF0FF3008BD85
:104C9000022808B504D84FF400534B60002008BD2B
:104CA00003F024FA09230360002008BD10B540B9C1
:104CB0000B4B0122186800F057FD041E08DB20464C
:104CC00010BD03F013FA092303604FF0FF34F6E739
:104CD00003F00CFA644204604FF0FF34EFE700BFCA
:104CE000A81000200138012810B507D80A4B186811
:104CF00000F05AFD041E08DB204610BD03F0F6F953
:104D0000092303604FF0FF34F6E703F0EFF9644244
:104D100004604FF0FF34EFE7A810002000680B6834
:104D2000C01A70476FF05700704700BF62B600208E
:104D3000704700BF72B60020704700BF6D290AD8C7
:104D4000064A4809012301F01F0103FA01F142F864
:104D50002010002070476FF01500704700E100E060
:104D60006D290FD84B0909480122203301F01F019A
:104D700002FA01F140F82310BFF34F8FBFF36F8F9A
:104D8000002070476FF01500704700BF00E100E0A1
:104D90006D2909D801F1604101F561415201D2B29A
:104DA00081F80023002070476FF01500704700BFA6
:104DB00010B586B00023CDE90333059300282ED02B
:104DC000012830D002282CD003280CBF1F211946FF
:104DD000400100F1804303F52033144CD3F8042143
:104DE000E06C029142F00402C3F8042148B102AA27
:104DF0006946FBF7DDFB20B9009A93680BB1D068D8
:104E00009847E06D48B102AA01A9FBF7D1FB20B990
:104E1000019A93680BB1D068984706B010BD1C2169
:104E2000D6E71E21D4E71D21D2E700BF0C000020E9
:104E300010B51F4A86B000239042CDE903330446E3
:104E400005932DD003F1804303F58833984214D0A5
:104E500003F58053984227D003F58053984225D01C
:104E600003F5DB2303F5806398421BD003F58063D1
:104E700098420CBF0A23002300E006230D49029349
:104E8000486B02AA01A9FBF793FB38B9019A936812
:104E90000BB1D06898472046FEF7A8FA06B010BDBF
:104EA0000523EBE70923E9E70723E7E70823E5E71D
:104EB000000001400C000020F0B587B00023CDE9D0
:104EC00003330593A1F11803022B029140F28C8069
:104ED00036290E4600F0888000287AD01446002A31
:104EE00077D0137A0B2B74D84A4FDA0007EBC30341
:104EF0005868E8B102AA01A9FBF75AFB054658BB5E
:104F0000637A013B072B64D8DFE803F0076804638A
:104F100063630707E068FEF76BFAE268019BC3E989
:104F20000062D4E90012C3E90212284607B0F0BDBE
:104F3000101D3844384A0321FBF77CFA0546002847
:104F4000F3D1237A07EBC30302AA586801A9FBF740
:104F50002FFB05460028D3D010210120FBF76EF966
:104F600001460190002851D0E368C0E90063D4E90C
:104F70000023C0E90223237A07EBC3035868FBF739
:104F800039FA0546F8B9637A013B072B12D801A21A
:104F900052F823F02B4F0010FB4F0010F34F00107E
:104FA000B54F0010B54F0010B54F00102B4F00103B
:104FB0002B4F0010237A07EBC307694678686FF020
:104FC0001505FBF7C9F90198FBF73AF9284607B030
:104FD000F0BD6FF01505284607B0F0BD0220FEF7C2
:104FE0009BF9002899D00EE06FF05705284607B0CE
:104FF000F0BDE068FEF7FCF997E70220FEF78CF9B8
:105000000546002891D06FF00F058EE76FF00B0575
:105010008BE700BF0C0000201D4D0010B1B1F8B5AA
:105020000D4F3C68064614B104600020F8BD0D46E3
:1050300001201021FBF702F9034650B12968AA6844
:1050400038601960DA6020463360F8BD6FF01500F3
:1050500070476FF00B00F8BDAC10002000B3F0B546
:10506000114C83B0074604F16006002502E0019868
:10507000FBF7E6F8606801A9FBF792F90028F6D083
:1050800060680834FBF728FAB44244F8045CF1D1B4
:105090003846FBF7D5F8054B00201D6003B0F0BD86
:1050A0006FF01500704700BF0C000020AC1000200E
:1050B00010B586B00023CDE9033301930593A1F128
:1050C0001803022B029128D9362926D068B314463A
:1050D0005AB3507A022814D003281AD0012815D0C8
:1050E000217A134B03EBC10302AA586801A9FBF70D
:1050F000C1FA0446B0B90198FBF7A2F8204606B001
:1051000010BD0C4B0393FEF70DF9E9E7D368039349
:10511000E6E7D068FEF76EF9E2E76FF05704204645
:1051200006B010BD6FF01204E8E76FF01504E5E774
:105130000C0000200060004008B50948FCF73CFF67
:10514000084B1A685AB19A6932B91A6922B1BDE896
:1051500008400448FCF72CBFDB68002BF7D108BDE2
:10516000002004402810002008B50948FCF724FF5F
:10517000084B1A6A5AB19A6B32B91A6B22B1BDE860
:1051800008400548FCF714BFDB6A002BF7D108BDC7
:1051900000300440281000204810002008B50948BD
:1051A000FCF70AFF084B1A6C5AB19A6D32B91A6DA6
:1051B00022B1BDE808400548FCF7FABEDB6C002BC5
:1051C000F7D108BD004004402810002068100020DE
:1051D00008B50948FCF7F0FE084B1A6E5AB19A6FF1
:1051E00032B91A6F22B1BDE808400548FCF7E0BEAD
:1051F000DB6E002BF7D108BD0014084028100020FA
:10520000881000200148FFF713BE00BF00000140D6
:105210000148FFF70DBE00BF001001400148FFF735
:1052200007BE00BF002001400020FFF7C1BD00BF46
:105230000120FFF7BDBD00BF0220FFF7B9BD00BFD1
:105240000320FFF7B5BD00BF00B583B0FEF770F8CF
:10525000430602D403B05DF804FB4020FEF76EF86D
:10526000074B01A9586AFBF75BF80028F2DB019AAB
:105270009368002BEED0D068984703B05DF804FB2C
:105280000C00002030B5344A0368934287B041D007
:1052900002F58052934228D0304A934248D002F51A
:1052A000753293424ED00023CDE903330593029328
:1052B0004FF0FF3511B318460B21FCF771FE284B58
:1052C000586802AA01A9FBF773F9044658B9019A74
:1052D00024489368690144502BB1234DD0680121C3
:1052E000297098472C7007B030BD0022CDE9032209
:1052F00005920F22029201250029DCD14269C36880
:10530000934211D0826903699342ECD1002BEAD019
:10531000164BD5E700250E24CDE9035505950294DB
:105320000029C8D10D46E9E7002BEBD0104BC7E7A9
:105330000022CDE9032205922222029202250029B1
:10534000B9D1DBE70022CDE903220592582202926F
:1053500003250029AFD1D1E70020044000400440DC
:105360002400002028100020251000201C00002010
:10537000140000200C4B0D4A1B68A2FB03239B0961
:10538000013BB3F1807F0BD24FF0E022084853611C
:105390004FF0E00C0021072380F823C091611361D6
:1053A0000120FDF7DBBC00BF08000020D34D6210D8
:1053B00000ED00E008B5FFF7DDFF08BD10B5054CB6
:1053C000FDF732FCD4E90023501C43F10001C4E98D
:1053D000000110BDB0100020FDF7C0BC4FF47A737F
:1053E00003FB00F0FDF7BABC00293ED0CB682DE9E5
:1053F000F0410C46002B32D01B68002B32D00A68DB
:10540000042A2CD81C4E56F8227005467FB121463E
:105410002846984748B92368296856F823300B6016
:105420001A7901321A71E3680B61BDE8F081182125
:105430000120FAF703FF8046D0B1FAF703FF88F89E
:1054400004702368626846F82380C8F80830E3686F
:10545000C8E9032322691B68C8F81420D7E76FF056
:105460001500E2E76FF05700DFE76FF015007047B7
:105470006FF00B00D9E700BFB810002070B50B4EDD
:1054800056F820502B7904464BB92868FAF7E0FE0D
:105490002846FAF7D5FE002346F8243070BD013BBC
:1054A000DBB22B71002BF0D070BD00BFB810002014
:1054B00078B1036910B504468BB102681AB19068DF
:1054C000FFF7DCFF2369DB6833B12046BDE81040FD
:1054D00018476FF0150070476FF0570010BD6FF060
:1054E000150010BDF8B5C8B11D4603690446ABB13F
:1054F0005B68B3B10368186816460F46FAF7A4FE56
:1055000022692B462046556839463246A84723680B
:1055100004461868FAF79AFE2046F8BD6FF01504A5
:10552000FAE76FF05704F7E7F8B5C8B11D4603690D
:105530000446ABB19B68B3B10368186816460F46C2
:10554000FAF782FE22692B46204695683946324694
:10555000A847236804461868FAF778FE2046F8BD85
:105560006FF01504FAE76FF05704F7E738B51C2120
:1055700005460120FAF762FEA0B10446FAF762FE82
:1055800000202071D5E90032C4E902326A7A22741F
:10559000AA7A6274EA68A9696261044AA16142F860
:1055A000234038BD6FF00B0038BD00BFCC10002089
:1055B000002936D0CB6870B50C4663B31B686BB35B
:1055C0000A68082A27D8194E56F822200546CAB17B
:1055D000214628469847034690B921682A6856F81C
:1055E00021101160087901300871E1681161E169E9
:1055F000116210342A6894E80300143282E8030030
:10560000184670BD0846FFF7B1FF03460028F7D1E2
:10561000E3681B68DCE76FF01503F1E76FF05703F1
:10562000EEE76FF015031846704700BFCC1000205E
:1056300070B50B4E56F820502B7904464BB92868AC
:10564000FAF706FE2846FAF7FBFD002346F8243059
:1056500070BD013BDBB22B71002BF0D070BD00BFE1
:10566000CC10002078B1036910B504468BB10268F4
:105670001AB19068FFF7DCFF23695B6933B12046FC
:10568000BDE8104018476FF0150070476FF05700E5
:1056900010BD6FF0150010BD70B5B8B103690446B8
:1056A000A3B15B68ABB1036818680D461646FAF7FC
:1056B000CBFD236920465B6832462946984723681C
:1056C00004461868FAF7C2FD204670BD6FF0150455
:1056D000FAE76FF05704F7E7F8B5E9B14B690C4604
:1056E000D3B10A780A2A17D81B68C3B1064698476F
:1056F000054608B12846F8BD336862695A61094F0A
:10570000207807EB8000FAF79DFD2278336857F880
:1057100022201A602846F8BD6FF01505EAE76FF001
:105720005705E7E7F0100020C8B1436910B50446FB
:1057300093B15B696BB10068FAF78AFD63692179FF
:10574000084A5B69002042F821002046BDE810406D
:1057500018476FF0570010BD6FF0150010BD6FF0C7
:1057600015007047F010002070B5B8B143690446C9
:10577000A3B10D4691B15B689BB100681646FAF77C
:1057800063FD636920465B683246294698470346B5
:1057900020681C46FAF75AFD204670BD6FF01504CC
:1057A000FAE76FF05704F7E770B5B8B143690446FC
:1057B000A3B10D4691B19B689BB100681646FAF7FC
:1057C00043FD636920469B68324629469847034655
:1057D00020681C46FAF73AFD204670BD6FF01504AC
:1057E000FAE76FF05704F7E779B138B54B680C4624
:1057F0008BB11B6863B10546984728B92B6861686F
:105800009A68596001329A6038BD6FF01500704790
:105810006FF0570038BD6FF0150038BD50B14268C9
:1058200042B1916A49B18268013A826002B908477F
:10583000002070476FF0150070476FF057007047F9
:1058400020B1436813B15B681BB118476FF01500B6
:1058500070476FF05700704720B1436813B19B68E1
:105860001BB118476FF0150070476FF05700704775
:1058700020B1436813B19B691BB118476FF0150045
:1058800070476FF05700704720B1436813B1DB6970
:105890001BB118476FF0150070476FF05700704745
:1058A00020B1436813B11B6A1BB118476FF0150094
:1058B00070476FF057007047436870B5044603B3F4
:1058C00000252E4614E0A3682B44186BFAF7C0FCA1
:1058D000206940B1A3682B4403F11002D96911B1CA
:1058E000D968FFF7B9FF63689E4205F1380508D211
:1058F000A3682B4401369868FAF7EEFD0028E2D041
:1059000070BDE069FAF7A4FCE36820465B6898473D
:105910000028F5D1A369013BA36170BD2DE9F043D7
:1059200083B0002961D08B680F46002B5DD01B68C7
:10593000002B5DD0064601A8FAF784FC0198FAF71F
:1059400083FCBB6839461B6830469847804630B1B7
:105950000198FAF77BFC404603B0BDE8F08330685D
:105960001C30FAF76FFC3368BA68DA607A6882B381
:1059700044460BE033689B684B4403F13000FAF770
:1059800061FC7B680134A342336822D99B68C4EB75
:10599000C40503EBC5030022012103F10800FAF757
:1059A00049FD4FEAC50905460028E3D0002744B168
:1059B00033689B684B4401379868FAF78DFDA7421E
:1059C000F6D1306878B183696BB1FFF775FFA846EF
:1059D000BEE79A69019801329A61FAF737FC4046AE
:1059E00003B0BDE8F083A846B2E76FF01508B2E750
:1059F0006FF05708AFE700BF70B582B0E0B1C36881
:105A00000446CBB19B68D3B1C0690E46FAF71CFCC3
:105A1000E36801A99B6820469847054630B9019B79
:105A2000A268C3EBC30302EBC3033360E069FAF778
:105A30000DFC284602B070BD6FF01505F9E76FF058
:105A40005705F6E738B5A0B1C36804468BB10D46DB
:105A500079B1DB6883B1086BFAF7F6FBE368296874
:105A6000DB68204698470446286BFAF7EFFB204690
:105A700038BD6FF01504FAE76FF05704F7E700BF81
:105A80002DE9F04782B000286BD08946002968D004
:105A90009046002A65D01C46002B62D08246186BC7
:105AA000FAF7D2FB4E4600253146A0682F46013555
:105AB000FAF7A0FCA84506F12406F5D1DAF8103073
:105AC000002B43D004F1200363612368E36199F85C
:105AD0001C306376C4E908A499F80C30012B2BD94B
