:020000041000EA
:1000000000C001202D670010696700106B670010A9
:100010006D6700106F67001071670010000000002E
:1000200000000000000000000000000073670010E6
:10003000756700100000000077670010AD8A00109F
:100040007D6700107F67001081670010D583001066
:1000500085670010918300109D830010A983001014
:100060008D6700108F670010916700109367001074
:10007000956700101D6F0010C5820010F5820010FA
:100080009D6700109F670010A1670010A367001014
:10009000A5670010A7670010A9670010AB670010E4
:1000A000156C00101D6C0010256C0010B36700105B
:1000B000B5830010BD830010C5830010CD830010F0
:1000C000BD670010BF67001029830010C3670010D0
:1000D000296F0010C7670010C9670010CB670010B8
:1000E000CD670010CF670010D1670010D3670010F4
:1000F000D5670010D7670010D9670010DB670010C4
:10010000DD670010DF670010E1670010E367001093
:10011000E5670010E7670010E9670010EB67001063
:10012000ED670010EF670010F1670010F367001033
:10013000F5670010F7670010356F0010FB670010BF
:10014000FD670010FF6700100168001003680010D1
:100150000568001007680010096800100B6800109F
:100160000D6800100F68001011680010136800106F
:100170001568001017680010196800101B6800103F
:100180001D6800101F68001021680010236800100F
:100190002568001027680010296800102B680010DF
:1001A0005D8300102F680010316800103368001064
:1001B0003568001037680010396800103B6800107F
:1001C0003D6800103F68001041680010436800104F
:1001D0004568001047680010496800104B6800101F
:1001E0004D6800104F6800105168001053680010EF
:1001F000556800105768001010B5054C237833B9C6
:10020000044B13B10448AFF300800123237010BDE9
:10021000400D0020000000001C77011008B5034BC2
:100220001BB103490348AFF3008008BD0000000084
:10023000440D00201C7701100BF096BC0BF022BC83
:100240000BF09ABC704700BF704700BF704700BFFB
:10025000704700BF60B170B50D46164604462022B7
:10026000002108300BF0DAFFC4E90065002070BD02
:100270006FF01500704700BFC8B170B50D4681B171
:10028000064628210120FFF7D9FF044660B13060FF
:10029000294605600120FFF7D1FF606050B10020C2
:1002A00070BD6FF0150070BD6FF00B0070BD6FF08A
:1002B000150070472046FFF7C3FF6FF00B0070BDBD
:1002C00050B110B50446406808B1FFF7B9FF2046A9
:1002D000FFF7B6FF002010BD4FF0FF30704700BFA2
:1002E000C0B1B9B1C268C3699A4209D808D183685C
:1002F00082699B1A0B6002689A4207D300207047FC
:1003000002688368134482699B1AF3E70A606FF4FA
:10031000FA6070476FF01500704700BF2DE9F04F8D
:1003200087B0CDE90121002800F08B809B46002991
:1003300000F08780002A00F08480002504460395A1
:10034000A8466FF4FA69019B0127A3EB080ABBF1E9
:10035000000F33D094F8203005A92046002BF6D1A9
:10036000FFF7BEFF484504D1D4E90223013BC4E9AD
:100370000623059B53451A4628BF5246BBB1002AA7
:10038000E5D0D4E90056A36984F82070ED1A9542AF
:1003900028BF154610F1100F65621E44D7D010F12A
:1003A0000B0FD4D0039B484508BF5B460393002D39
:1003B0003DD14FF0FF3007B0BDE8F08F237C002B1C
:1003C000FCD1D4E90056A1686D1A554528BF5546A1
:1003D000012265610E442274002DEAD0029B2A4658
:1003E00003EB080130460BF07FFE04F108073A7A70
:1003F00082B13968FA6820680A44824206D3796873
:1004000001317960B2FBF0F100FB112200213A606A
:10041000F9603972019BA844434594D8039B002B93
:100420000CBF00206FF4FA6007B0BDE8F08F029BAC
:100430002A46314603EB080004F118070BF054FE7E
:10044000D5E76FF01500EFE7C8B1C2B1BBB1844684
:10045000007CB8B930B5DCF80040DCF80850A4EBFB
:10046000050E714528BF7146CCF814101960DCE9FF
:1004700001310B44012113608CF8101030BD6FF076
:10048000150070476FF00F00704700BF00283AD08A
:10049000F0B5164683B082B31F4673B390F8203090
:1004A00004463BBB0D4601A9FFF71AFF6FF4FA6340
:1004B000984204D1E368013BE361A368A361019919
:1004C000A9B1A94228BF2946D1B1A3692268A2EBEC
:1004D000030C614528BF614661623960A2696368A7
:1004E00013440122336084F8202003B0F0BD084695
:1004F00003B0F0BD6FF00F00F7E76FF01500F4E701
:100500006FF00A00F1E76FF015007047B8B1037C97
:1005100093B18368416902680B44934206D3B3FBED
:10052000F2FCC1680131C16002FB1C330022836010
:1005300042610274104670474FF0FF3070476FF011
:1005400015007047C8B190F820309BB18369416AAB
:1005500002680B44934206D3B3FBF2FCC16901313C
:10056000C16102FB1C3300228361426280F82020BB
:10057000104670474FF0FF3070476FF0150070471E
:100580000023FFF7CBBE00BF0123FFF7C7BE00BFAC
:1005900088B138B5082105460120FFF74FFE044613
:1005A00060B14FF480710120FFF748FE206040B138
:1005B0002C60002038BD6FF0150070476FF00B0005
:1005C00038BD2046FFF73CFE6FF00B0038BD00BF82
:1005D00002790346407990420AD010B41C68A25CAC
:1005E0000A701A7901321A7100205DF8044B7047C5
:1005F0004FF0FF30704700BF42790346007902F1A7
:10060000010C844509D010B41C68A1545A790132F8
:100610005A7100205DF8044B70474FF0FF3070476F
:1006200018B1006808B1FFF70BBE7047401A801080
:10063000704700BF20B143691B68002019607047F4
:100640004FF0FF30704700BF20B143695B68002066
:10065000196070474FF0FF30704700BF48B141B19B
:1006600000230B60426912681AB112680A601846CA
:1006700070474FF0FF30704748B141B100230B6025
:10068000426952681AB112680A60184670474FF002
:10069000FF307047F0B1E9B138B500230B60436912
:1006A0009A68A2B15868D0E9014504B1A56005B1C6
:1006B0006C601D685C6045B13CB10468013A9A60A9
:1006C0000C60FFF7BDFD002038BD1C60F5E74FF062
:1006D000FF3038BD4FF0FF30704700BF20B319B373
:1006E00038B500230B6043699C68D4B11868D0E921
:1006F000015205B1AA608AB1904255605D6809D087
:100700001A6065B10268013C9C600A60FFF798FDC1
:10071000002038BD002DF5D11D60F3E71A605A6046
:10072000F0E74FF0FF3038BD4FF0FF30704700BFAB
:10073000D8B170B544690D4601200C216668FFF7F9
:100740007DFD78B1056006B1B06023680022C0E984
:100750000162606023B1A36801330020A36070BD13
:100760002060F8E74FF0FF3070BD4FF0FF3070476A
:1007700000283AD0F8B50F46064618210120154644
:10078000FFF75CFD044600282CD01C210120FFF758
:1007900055FD20B3164B3460002D08BF1D46012FB8
:1007A0006061C56019D0032F0CD1124A124B134956
:1007B000C4E90023124A134B2361C4E902124061C9
:1007C0000020F8BD104A114B0D49C4E900230B4A23
:1007D0000F4B2361C4E90212F1E70B4AE6E720461A
:1007E000FFF72EFD4FF0FF30F8BD4FF0FF307047A0
:1007F0002D060010390B0010DD0600105D060010FC
:10080000790600103506001031070010950600101B
:100810004906001060B338B543691A69054622BB22
:100820009A689AB11868D0E9014104B1A160A9B1F0
:1008300088424C605C6814D0196084B1013A9A60B7
:10084000FFF7FEFC6B699A68002AEBD11846FFF7A8
:10085000F7FC2846FFF7F4FC002038BD196059600A
:10086000ECE7002CEAD11C60E8E74FF0FF3038BD20
:100870004FF0FF30704700BF28B121B143699B683A
:100880000B60002070474FF0FF30704750B370B5D9
:1008900044690D4601200C212668FFF7CFFCF0B11A
:1008A0000023C0E90136056006B17060D4E9002379
:1008B00090420CD0206023B1A36801330020A360D4
:1008C00070BDA368606001330020A360F8E7002BCF
:1008D000F2D12360A36801330020A360F0E74FF05A
:1008E000FF3070BD4FF0FF30704700BF48B341B3D9
:1008F00000230B6010B44469D4B1A368934217D9A4
:100900002368A361002A18DB0AD04FF0010C7BB1E9
:10091000D3E90103BCF1010F18BF0346013AF6D138
:1009200033B11A68A36100205DF8044B0A60704778
:100930004FF0FF305DF8044B704752424FF0FF3CE0
:10094000E5E74FF0FF307047E8B1F8B50F46B9B1B1
:1009500000230B6045699DB16B691C6816462A68C7
:10096000AA611CB90CE0A46854B16B69DB6820680B
:10097000314698470028F6D12368AC613B60F8BD4A
:100980004FF0FF30F8BD4FF0FF307047D1B170B578
:1009900005460C46012008211646FFF74FFC03468A
:1009A00068B161690160086901300861D1E900023C
:1009B000002E08BF1046586000202B6070BD4FF01D
:1009C000FF3070BD4FF0FF30704700BF40B102688C
:1009D00008B51369013B1361FFF732FC002008BD25
:1009E0004FF0FF30704700BF002839D038B543685A
:1009F0000446002B31D000292FD0D3E9010200B1E9
:100A0000826002B1506022681068834214D0556839
:100A1000AB421BD090681B68013890600B60D4E932
:100A20000020D0E901355268904208BF1D46FFF70B
:100A300007FC6560002038BD98685568834208D07F
:100A400010600DB10028E5D15060E3E75D685560A6
:100A500008B1002DDED11560DCE74FF0FF3038BD66
:100A60004FF0FF30704700BF18B32DE9F0410F463B
:100A7000D9B100230B6045696B691C6816462A686A
:100A8000AA6105F114081CB90FE0A4686CB16B6988
:100A9000DB682068314698470028F6D1AC613946BA
:100AA0004046BDE8F041FFF79FBF4FF0FF30BDE883
:100AB000F0814FF0FF30704700283AD0F0B587B092
:100AC000036805930E460446AAB147685B689F42D7
:100AD00027D00C210120BD68FFF7B0FBF0B1066004
:100AE000B860C0E90175BDB9226893680133002080
:100AF000936007B0F0BD45681B689D4215D00C217E
:100B000001206F68FFF79AFB40B1C0E9006785607C
:100B100017B1B860C0E901756860E5E74FF0FF30D4
:100B2000E7E76846FFF704FEE3E76846FFF7AEFE37
:100B3000DFE74FF0FF30704700B370B545692C68B0
:100B40000E4614B910E0A46874B12068EB68314611
:100B500098470028F7DDAC61314605F1140000220A
:100B6000BDE87040FFF7A8BF6B68AB61314605F187
:100B700014000122BDE87040FFF79EBF4FF0FF3028
:100B8000704700BF58B110F001020AD1034602E0DD
:100B900013F0010F07D15B0802F10102F8D1202305
:100BA000994008407047914008407047014078B133
:100BB00010F0010302D006E0C20706D4400803F19A
:100BC0000103F9D1002108467047D9400846704713
:100BD0000146F8E70346020A000A05D00020D107C3
:100BE00048BF01305208FAD113F0FF0306D00022AB
:100BF000D90748BF01325B08FAD11044704700BFE3
:100C000010B582B0002201A904460CF0A3FA019BA2
:100C1000A34208BF6FF0150002B010BD008840BAB3
:100C200080B27047C1F10F01C9B2884000B20841DB
:100C3000704700BFD0E900305B6E1847D0E9003044
:100C40009B6E18472DE9F04F531C164691B0804615
:100C500014BF16460026A1B30F46D8F84890B9F144
:100C6000000F2AD0D8F84C30002B26DD002509F1E2
:100C70000403DFF854B0DFF854A001932C46311B75
:100C800059F835305A4621EAE17138190BF084FDE4
:100C9000019B0444311B53F835303819524621EA80
:100CA000E1710BF079FDD8F84C300135AB420444CA
:100CB000E5DC204611B0BDE8F08F002011B0BDE8A2
:100CC000F08F03AFC9E700BFC4610110E4610110F8
:100CD0002DE9F0430D46096883B029B380461646D6
:100CE00099462F46002404E055F8231005EB8307AE
:100CF000D1B130460BF038FE013424B204EB84034A
:100D00000028F1D1B9F1000F0BD1FC6864B179680A
:100D1000D8E902230091D8E90001A04703B0BDE85B
:100D2000F0833C69002CF2D16FF0010003B0BDE804
:100D3000F08300BF08F090B808F0AEB82DE9F04F8E
:100D40009BB01E46249C0790631C14BFA2464FF024
:100D5000000A084614BF2AEAEA715146002E00F044
:100D6000908213460090B24A30460BF015FD079A68
:100D700093680446002B00F07E829288002A00F0DF
:100D80007A8200220692069A02EBC20703EB8707DB
:100D900097F82130002B40F0348197F82230002B57
:100DA00000F0768197F82330002B00F037813B79F3
:100DB000A04A52F82320D7E902310DA8CDE900213D
:100DC0009D490BF02DFDAAEB04010DAB30199B4A98
:100DD00021EAE1710BF0E0FC3B68044443B1AAEB6B
:100DE00004013019964A21EAE1710BF0D5FC044464
:100DF00097F82000934A944BAAEB0401002808BFFF
:100E0000134621EAE171914A30190BF0C5FCBA6929
:100E10000444C2B1D07815797B690490907803902E
:100E20005078029012788A4801928A4AAAEB04010B
:100E3000002D08BF024600923019874A21EAE1716D
:100E40000BF0AAFC0444FA699046002A00F088805E
:100E50001368002B00F08480DFF82C92DFF82CB2AE
:100E6000142519E098F80830012B00F0B080022B0F
:100E700049D0002B00F08880AAEB04015A463019B3
:100E800021EAE1710BF088FCFA690334535902EB53
:100E900005081435002B63D098F808100329F5D005
:100EA000AAEB0401301921EAE1714A460BF074FC07
:100EB00097F823300444002BD4D198F80830012B44
:100EC00035D0022B1FD0002BD6D197F8223073B328
:100ED000D8F8003097F820200293BB6801933B7943
:100EE000544951F8233000935C495D4B002A18BFE8
:100EF0000B46AAEB040130195A4A21EAE1710BF0C2
:100F00004BFC0444B8E7D8F8003097F82020534948
:100F10000093534B002A18BF0B46AAEB040130196B
:100F2000514A21EAE1710BF037FC0444A4E7D8F8F8
:100F3000003097F8202001933B793E4951F8233047
:100F400000934649464B002A18BF0B46AAEB040102
:100F50003019464A21EAE1710BF01EFC04448BE78C
:100F6000AAEB0401424A21EAE17130190BF014FCAA
:100F70000799069A8B8801329342069204F10A047B
:100F800040F38E808B68FEE697F82230002B00F04D
:100F90007A813A792749D8F8003051F8222097F819
:100FA00020100493FB682D48CDE902232C4B002927
:100FB00018BF0346B968CDE90021AAEB0401301936
:100FC0002C4A21EAE1710BF0E7FB044454E73A793B
:100FD0001849D8F8003051F8222097F820100092D4
:100FE000CDE901231D4A1E4B002918BF1346AAEB69
:100FF00004013019204A21EAE1710BF0CDFB0444D1
:101000003AE7FA681D4B0B4953F822303A790DA89C
:1010100051F822201A490BF003FCD4E63B79054A2B
:10102000184952F82320BB680DA80BF0F9FBCAE65B
:10103000146201103C690110386201104C62011009
:1010400060620110FC610110F46101106C6201101A
:1010500008620110046201107C6201100C62011030
:101060001062011024630110C862011010630110A6
:101070003C630110F4620110DC620110846901100C
:101080003062011044620110B0620110AC620110C4
:101090003B798A4A0DA852F823100BF0CFFD92E657
:1010A000079BDB68A3B11B6893B1854FDDF81C80FB
:1010B0001425AAEB040130193A4621EAE1710BF03C
:1010C0006BFBD8F80C305B5904441435002BF0D17D
:1010D00007998B68002B69D08A88002A66D0002087
:1010E00009948046CDF828A08B460B9608EBC809DA
:1010F00003EB89034FEA8901DF69089306913B46B8
:10110000002F49D0D7F800A0BAF1000F44D0142521
:10111000D14606E057F805907B191435B9F1000F58
:1011200038D01B7A032BF5D1B8F1000F1CD0DBF8B7
:101130000840069BE618E3699BB1186888B19A4697
:1011400002E05AF8140F60B19AF80830032BF8D176
:1011500049460BF009FC0028DCD05AF8140F00288F
:10116000F2D12434A642E6D1DDE909410B98544A74
:10117000091B4B4621EAE17120440BF00DFB2318BB
:101180000993089BDF6957F805907B191435B9F16D
:10119000000FC6D1BBF8042008F10108424502DD6A
:1011A000DBF80830A2E7DDE9094A0B9E079A1369CC
:1011B0009BB11B688BB1434F14259046AAEB0401E9
:1011C00030193A4621EAE1710BF0E6FAD8F810300E
:1011D0005B5904441435002BF0D1079A136B002B94
:1011E00045D0AAEB04013019374A21EAE1712C34C9
:1011F0000BF0D2FA079B9B69002B49D0079D6B69C6
:10120000AAEB0401002B50D0304A301921EAE171D9
:101210000BF0C2FA6B691B682A4612348BB1284F57
:1012200014259046AAEB040130193A4621EAE171EF
:101230000BF0B2FAD8F814305B5904441435002B83
:10124000F0D1AAEB04013019214A21EAE1710BF037
:10125000A3FA0934AAEB04011E4A21EAE17130190C
:101260000BF09AFA04F109001BB0BDE8F08F536B44
:10127000002BB6D1BEE7079BDB68002B7FF413AFD2
:1012800094E70DAE6DE56FF015001BB0BDE8F08F73
:10129000079BDB69002BB1D1079B9B6A002BADD16B
:1012A000079BDB6A002BA9D1D4E730190A4A21EA4F
:1012B000E1710BF071FA1434CCE700BF3C69011006
:1012C000486301106063011080630110B063011076
:1012D000C4630110E8630110D06301102DE9F04FE1
:1012E00083B09DF830400194002A35D08B46002908
:1012F00032D080469A469146002606EBC60309EB9B
:101300008303DD6925B3296811B32F4600243B7A96
:10131000032B504612D10BF027FB78B9019B03BB7E
:10132000FC68CCB17B68D8F808200C93019BD8E905
:101330000001A44603B0BDE8F04F6047013424B279
:1013400004EB840305EB830755F823100029DED155
:10135000013636B25E45D0DB6FF0010003B0BDE868
:10136000F08F3C69002CF7D07B68D8F808200C93EC
:101370000346DCE72DE9F04F0768D7F854A03C6D31
:1013800099B00E4690469946BAF1000F00F0E08001
:10139000002504E0AA4504F1B00400F0D9802046FD
:1013A000314601350BF0E0FA0028F3D198F80050EF
:1013B00015BB8649D8F804000BF0D6FAE0B9636D86
:1013C0005B6B002B00F08580814908AB05AA48467D
:1013D0000BF046FA022840F08A80636D089A5B6B36
:1013E0000599606C98470346229830EA230028BF8D
:1013F000184619B0BDE8F08FD8F808A09AF8006038
:1014000076B90B96636C229ACDF824900A920893D1
:10141000042D00F2D980DFE805F064614B4B6700D2
:10142000676DA5F10206B6FA86F6BB8876090296C4
:10143000002B4ED0DFF8B0B10394002522E091F8E4
:101440002230002B67D091F82330002B5AD00B7933
:101450005BF82320D1E9023108A8CDE900215D49DC
:101460000BF0DEF908A950460BF07EFA01352DB2DB
:1014700028B9BB68234493F82020B24252D0BB88DD
:101480009D4226DAB96805EBC50401EB8401A4008E
:1014900091F82130002BD2D0CB680A794E495BF805
:1014A000222051F823304D4908A80BF0B9F9D9E7AB
:1014B000F169D8F804201378002B00F08280012312
:1014C00008A8FFF705FC831C05D198F80030042B11
:1014D0006CD06FF0010019B0BDE8F08F636D5969F1
:1014E000E7E7636D1969E4E7636DD968E1E73C49B3
:1014F00005AA48460BF0B4F9012862D1059B229851
:101500002365E8E70A798B685BF82220354908A84B
:101510000BF086F9A6E70B7908A85BF823100BF00F
:101520008DFB9FE71E46DDE902348DF81630B36867
:10153000ADF8143033798DF8173096F823308DF8E4
:1015400018303369079305AB98F800500B9359E7AF
:10155000D7E916453DB3002703E0BD4204F150042E
:1015600021D02046314601370BF0FEF90028F4D196
:1015700098F80030626C0892042B229A08BFA36C82
:101580000A92D8F804200B90CDF8249008BF59682F
:10159000137818BF0146A3B1012308A8FFF798FBF1
:1015A00019B0BDE8F08F6FF0120094E7616DD8F8C4
:1015B00004308A688988012408A80094FFF78EFE09
:1015C00089E76FF0150086E7002172E7F4630110E8
:1015D0000864011038620110846901103062011042
:1015E00014640110446201103C69011003682DE984
:1015F000F041D3E91447A7B10E469046002501E01B
:10160000AF420ED0204631460BF0AEF90135B03472
:101610000028F5D1B8F1010F18BF6FF01500BDE833
:10162000F0816FF01200BDE8F08100BF2DE9F043BA
:101630000068D0E9144783B067B30E4691469846D8
:10164000002503E0AF4204F1B00423D02046314628
:1016500001350BF089F90028F4D194F8A830CBB10A
:1016600004F1780501A92846FEF73AFE00280EDBB2
:10167000019AE06D801A804528BF8046494642465F
:101680002846FEF77DFF10EA200038BF404603B031
:10169000BDE8F0836FF0150003B0BDE8F08300BF34
:1016A0002DE9F0430068D0E9144983B0B9F1000F87
:1016B0002AD00E4690461F46002503E0A94504F1B6
:1016C000B00421D02046314601350BF04DF90028F9
:1016D000F4D194F8A830BBB1783401A92046FEF7C4
:1016E000FFFD00280DDB0198874228BF074687B120
:1016F0003A4641462046FEF747FF10EA200038BF31
:10170000384603B0BDE8F0836FF0150003B0BDE8C4
:10171000F0836FF00A00F4E72DE9F04FD0F800A055
:10172000DAF85CB081B0BBF1000F32D0DAF8587053
:1017300089461646984600253C46204649460BF009
:1017400013F90135503420B3AB45F6D1DAE914452D
:1017500025B34FF0000A03E0554504F1B0041DD055
:10176000204649460AF1010A0BF0FEF80028F3D1A1
:10177000D4F8AC305A1C16D003EB830307EB0313E9
:101780000A4A1B6C4146304601B0BDE8F04F0BF0F1
:1017900003B86FF0010001B0BDE8F08F6FF01200E8
:1017A00001B0BDE8F08F3070F5E700BF186401109C
:1017B0002DE9F84F0568EF6DCFB3AE6D8A469046C0
:1017C00099464FF0000B3446204651460BF0CCF8BA
:1017D0000BF1010B503450B35F45F5D1D5E91454EA
:1017E0004CB34FF0000B03E05C4505F1B00522D08F
:1017F000284651460BF1010B0BF0B6F80028F3D147
:1018000098F800302BB94FF0FF33C5F8AC30BDE885
:10181000F88F0446304641460BF0A6F8503670B1BA
:101820000134A742F6D16FF01500BDE8F88F6FF0D4
:101830000100BDE8F88F6FF01200BDE8F88FC5F821
:10184000AC404846E3E700BF2DE9F047D0F80090F0
:10185000D9E9146ABAF1000F2ED080460F46002550
:1018600003E0AA4506F1B00626D0304639460BF013
:101870007BF8013504460028F3D196F8A83063B30D
:1018800096F8A930EBB9D6F8AC305A1C0BD0D9F881
:10189000582003EB830302EB03139A6CD26812B156
:1018A000586C9047A8B9736D5B6A0022B2652BB182
:1018B000706CBDE8F04718474FF0FF342046BDE894
:1018C000F087F06FFEF7BCFCD8F8009086F8A940CE
:1018D000D9E704462046BDE8F0876FF01504EDE730
:1018E0002DE9F04F99460368D3E9144881B09DF87B
:1018F00028A0B8F1000F00F0A38007468B461646DB
:10190000002504E0A84504F1B00400F099802046C9
:10191000594601350BF028F80028F3D194F8A83087
:10192000002B00F0AC80626D93884FF0FF35C3F15F
:101930002003DD4015EA090500F09E80D2F808C0BA
:1019400084F870A06067A56503462A464FF0010E33
:101950004FF0020805E0A9EB000352080CF1240C3B
:1019600015D0D107F9D5DCF818108978C9088E454B
:10197000B3FBF1F001FB103018FB013938BF8E4684
:101980000028E8D152080B440CF1240CE9D1B3FB38
:10199000FEF20EFB1232002A58D1D4F8A0102366B2
:1019A00003FB06F86666C4F85C80C9B1D4F8A400ED
:1019B000B0B1804566D8B0FBF8F308FB1303A0EB89
:1019C0000308424604F17800FEF744FC061E1CDAC8
:1019D00094F8A930002B45D1304601B0BDE8F08F16
:1019E00094F8A930002B34D101214046FEF726FCA3
:1019F0000146002846D0012384F8A930424604F16C
:101A00007800FEF727FC061EE2DB636D1B6A23B13C
:101A1000606C29469847061EDADBD4F8AC305A1CB5
:101A2000DAD03A68926D03EB830302EB03139A6CEE
:101A30009268002AD0D0586C01B0BDE8F04F104732
:101A40006FF01206304601B0BDE8F08F73449B1A68
:101A5000A3E7E06FFEF7F4FB0023D4F85C8084F882
:101A6000A930C1E7E06FFEF7EBFB0023304684F8B6
:101A7000A93001B0BDE8F08F6FF00106ACE76FF060
:101A80001506A9E76FF00B06A6E700BF2DE9F04F9A
:101A90000768D7F854A03C6D99B00E469046994619
:101AA000BAF1000F00F0CB80002504E0AA4504F154
:101AB000B00400F0C4802046314601350AF054FFDE
:101AC0000028F3D198F80050CDB97C49D8F804002B
:101AD0000AF04AFF98B9636D1B6B002B7BD008900E
:101AE000216D606C08AA9847002805DB089B744AA2
:101AF000229948460AF050FE19B0BDE8F08FD8F898
:101B000008A09AF8006076B90B96636C229ACDF81B
:101B100024900A920893042D00F2CD80DFE805F0AE
:101B200060634B4B6600676DA5F10206B6FA86F658
:101B3000BB8876090296002B4DD0DFF898B103944C
:101B4000002522E091F82230002B5BD091F8233061
:101B5000002B4ED00B795BF82320D1E9023108A885
:101B6000CDE9002157490AF05BFE08A950460AF06A
:101B7000FBFE01352DB228B9BB68234493F8202021
:101B8000B24246D0BB889D4225DAB96805EBC50450
:101B900001EB8401A40091F82130002BD2D0CB6856
:101BA0000A7949495BF8222051F82330474908A8AF
:101BB0000AF036FED9E7F169D8F804201378002B33
:101BC00076D0002308A8FFF783F8831C94D198F8F7
:101BD0000030042B61D06FF0010019B0BDE8F08F28
:101BE000636D1969E8E7636D5969E5E7636DD96865
:101BF000E2E70A798B685BF82220354908A80AF0E9
:101C00000FFEB2E70B7908A85BF823100BF016F86B
:101C1000ABE71E46DDE902348DF81630B368ADF847
:101C2000143033798DF8173096F823308DF818304A
:101C30003369079305AB98F800500B9365E7D7E934
:101C400016453DB3002703E0BD4204F1500421D006
:101C50002046314601370AF087FE0028F4D198F873
:101C60000030626C0892042B229A08BFA36C0A927F
:101C7000D8F804200B90CDF8249008BF5968137849
:101C800018BF0146A3B1002308A8FFF721F819B037
:101C9000BDE8F08F6FF012002EE7616DD8F80430C8
:101CA0008A688988002408A80094FFF717FB23E7B7
:101CB0006FF0150020E700217EE700BFF4630110FC
:101CC000146401103862011084690110306201103F
:101CD000446201103C69011090B100B5037C0A46D2
:101CE00083B0416840692BB101ABFEF7CFFB03B075
:101CF0005DF804FB01ABFEF7A7FB03B05DF804FB46
:101D00006FF01500704700BF2DE9F041D0E914478E
:101D100082B0002F3CD00E469046002503E0AF4233
:101D200004F1B00434D02046314601350AF01CFEDF
:101D30000028F4D194F8A83053B3636D84F8688018
:101D40009A6A1AB1D4F8AC1001312AD0B8F1000F58
:101D500023D19B69F3B1D4F8AC3001331AD101A976
:101D600004F15800FFF7B8FF002813DB636D626EC3
:101D7000B8F1000F1BD0DB690199606C984700280F
:101D800008DB94F86830E06EB3B1FEF7DBFB01E0EE
:101D90006FF0150002B0BDE8F081DB69002BDAD1ED
:101DA000F8E704F1480002B0BDE8F04110479B6934
:101DB0000199606C9847E2E7FEF7A8FBEAE700BFED
:101DC00000680022FFF7A0BF00680122FFF79CBF58
:101DD0002DE9F041D0F854C082B00446BCF1000FA8
:101DE00024D04FF00008474645464646236D3B4405
:101DF0000135D3F8AC2002EB8201013207F1B007C4
:101E000010D0A26D02EB011203F1480092F84C20B1
:101E100042B15B6DDB6A2BB19847D4E915C34344EB
:101E200083F84C60654508F15008DFD3E06E01A9E6
:101E3000FEF756FA019B032B98BF6FF00A050ED9E7
:101E4000E06E04226946FEF79FFB051E07DB009942
:101E5000206800F005FD10F1800F054603D12846EB
:101E600002B0BDE8F0810422009BE06E01930DEB0F
:101E70000201FEF785FB284602B0BDE8F08100BFF5
:101E80002DE9F04F9BB0CDE90410002800F0DB8174
:101E90000C46002900F0D78170210120FEF7CEF911
:101EA0000546002800F0D281E368276A836423692D
:101EB000E669C364C765002F5BD18765049A93699F
:101EC00056696B65B02118461C460393FEF7B6F9B8
:101ED0002865002800F0BD81002C7AD04FF0000862
:101EE0000746B146B02303FB0877D9F80830AB4961
:101EF0007B65424638460AF093FCD9F814A0BAF143
:101F0000000F57D0D5E91646002E53D04FF0000BE6
:101F100003E00BF1010B5E454CD0204651460AF020
:101F200023FD50340028F4D1D9F80430C7F8ACB000
:101F3000C7E9113307F15803FB64D9F80830D9F821
:101F400000203A649A69002A37D0D9E90323C7E907
:101F5000282307F17803FB664FF0010387F8A830C8
:101F6000039B08F10108434509F1180931D02F6D91
:101F7000B8E750213846FEF761F9A865002800F05F
:101F80006B81DFF84482002400E0A86D04EB840339
:101F900000EB0310736843643168B36883642246BE
:101FA0000164013441460AF03BFCA74206F10C06ED
:101FB000EBD183E74FF0FF3BB6E7DA69002AC4D1E3
:101FC0009A6A002AC1D1DB6A002BBED187F8A830FB
:101FD000C6E7382200210CA80AF020F94FF0FF32A2
:101FE00000212846FEF72EFE6B6D00F2374693B1B6
:101FF00000244FF0B0084FF0FF372A6D08FB042291
:102000000023116C506D0097FEF798FE6B6D013444
:102010009C420644F1D3EB6DABB100244FF0FF3787
:10202000AA6D04EB840302EB03120CA8916C4968BF
:102030000F910023116C0097FEF780FEEB6D0134C9
:102040009C420644ECD301217018FEF7F7F828648F
:10205000002800F0048152496E6440F22E420AF0DA
:1020600043F8296CA6F22D4201F22D412846FEF7D5
:10207000E9FD6B6D00F22D44A3B100274FF0B008CD
:102080002A6D2B6C08FB0722A6EB040C2344116C71
:10209000506DCDF800C0FEF751FE6B6D01379F42C9
:1020A0000444EDD3EB6DABB10027AA6D07EB8703BA
:1020B00002EB03122B6C916C301B49680F91234487
:1020C000116C00900CA8FEF739FEEB6D01379F42B2
:1020D0000444EAD3334BD5F840A0DFF8F0B0324FD8
:1020E000DFF8ECE0DFF8EC80DFF8ECC0DFF8EC9034
:1020F00003CB0AEB04064AF8040018889B78B372F5
:102100002A4B71603081C5E90A3B294B2B63294B6F
:102110006B61294BEB61294BAB61294B2B62294B3E
:10212000C5F82490C5E903372B6CC5F838C0C5E95C
:10213000018E0E936B6C0F93049B2A1D1B788DF8F8
:1021400040300CA92846CDE90C2500F01DFB041EEB
:1021500014DB2C2105F16C00FEF78EF8041E0ADB5F
:10216000049B1B78002B59D0012B39D06FF015043C
:10217000E86EFEF7A5F8286800F03AFB286CFEF739
:102180005FF8A86DFEF75CF8286DFEF759F8284651
:10219000FEF756F820461BB0BDE8F08F286401100A
:1021A0003864011068680110491800107513001098
:1021B000B1170010A11600102D160010C11D00103F
:1021C000C91D0010E11800101C640110191700103F
:1021D000350C00103D0C0010ED1500108D1A00108C
:1021E000049B28689B681A686A665A68AA66D3E9DD
:1021F00002230021CDE9091207AA09A90B9300F0D7
:10220000F9FA041EB4DB079BE86E0893042208A9C0
:10221000FEF7B6F9059B00241D60BBE7049B11493E
:10222000114A5B682B66C5E91921104A28684FF4EA
:102230008051CDE909320B9107AA09A900F0DAFA19
:10224000041EE0DA94E76FF01504A3E76FF00B04C7
:10225000A0E76FF00B049AE76FF00B0494E76FF0C0
:102260000B048EE7390D0010350D00105C0D0020B9
:10227000A8B110B50446C06EFEF722F8206800F041
:10228000B7FA206DFDF7DCFFA06DFDF7D9FF206CDC
:10229000FDF7D6FF2046FDF7D3FF002010BD6FF0FD
:1022A000150070476FF01500704700BF6FF0150004
:1022B000704700BF6FF01500704700BF6FF015004A
:1022C000704700BF6FF01500704700BF6FF015003A
:1022D000704700BF2DE9F0410D4600F58058D1F858
:1022E0007C322A68D8F8F01A82B07E2BCDE9001231
:1022F00030D805F2F9160127F4180122D8F8BC3AB3
:1023000021466846984710F10B0F18D0002827D0B7
:1023100012DBD5F87C32ABB922780A2AECD00D2A30
:10232000EAD0C5F87C7223780A2B4FF00103E3D181
:102330002B44002083F8F9010023C5F87C3202B059
:10234000BDE8F0810133C5F87C3222780A2AEFD04B
:102350007E2BD1D900236FF00400C5F87C32EEE764
:102360006FF00A0002B0BDE8F08100BF6FF0150009
:10237000704700BFF0B500F58055144683B0D5F81E
:10238000F02A60680092A2680191161A1F4611D0C7
:102390002168FB074CBFD5F8B83AD5F8BC3A0144E0
:1023A000324668469847002811DB6368864203443A
:1023B00063600EDCBA0709D5D5F8B83A06490122A0
:1023C00068469847002802DB012802D1002003B0AC
:1023D000F0BD6FF00A00FAE7C06C01102DE9F04F74
:1023E000894683B0AE4992460AF05CFD98B1AD4D86
:1023F000AD49DFF8C482834605F13407092603E0BE
:1024000055F8046F58F8361058460AF0ADFA0446ED
:1024100038B1BD42F4D16FF01504204603B0BDE8D9
:10242000F08F9F4989F8006052460AF03BFD99F809
:102430000030032B0146F0D9042B11D10A2201A947
:102440000AF088FEC9F808000028E6D1019B1B7835
:10245000002B18BF6FF01504204603B0BDE8F08FC5
:102460003F2209F119000AF0B9FC8D4989F858405A
:10247000524620460AF016FD99F80060731F054683
:10248000082BC8D801A252F823F000BF6B2500101A
:102490001B240010D3240010D3240010BF240010EC
:1024A000BF2400101B24001011260010DB25001093
:1024B0004FF48072002109F1990009F0AFFE0A2261
:1024C00001A928460AF046FEC9F810000028A4D148
:1024D000BCE7042389F8D931002800F0D380734980
:1024E000DFF8D8B128460AF03FFA4FF00008074657
:1024F00068B108F10108B8F1040F00F095805BF8AD
:10250000041B28460AF030FA07460028F1D1644936
:1025100052460AF0C7FC5FFA88F889F8D981A8F119
:102520000208B8F1010F054600F2B78000283FF419
:1025300072AF01463F2209F159000AF04FFC584999
:1025400089F89870524638460AF0ACFC99F8003089
:102550000546082B74D0002D68D14FF480720021FD
:1025600009F1990009F05AFE57E700283FF453AFEC
:102570000A2201A90AF0EEFDC9F80C0020B9019B5E
:102580001B78002B7FF447AF4549524600200AF0E4
:1025900089FC00283FF43FAF01A910220AF0DAFDC0
:1025A000C9F8040020B9019B1B78002B7FF433AFDE
:1025B00000203B4989F8180052460AF073FC0028B5
:1025C0003FF42BAF3A490AF0CFF9044600287FF4D4
:1025D00022AF012389F818301FE700283FF41BAF12
:1025E00034490AF0C1F9044600287FF414AF2C499D
:1025F00052460AF057FC00283FF40DAF0A2201A909
:102600000AF0A8FDC9F8140000287FF406AF1DE702
:1026100000283BD001463F2209F299100AF0DEFB68
:10262000002389F8D831F8E6082E0CD0FF2229467D
:1026300009F199000AF0D2FB002389F89831ECE601
:10264000002D3FF4E8AE2B78303B092B7FF630AFFE
:10265000FF22294609F199000AF0C0FB0020104929
:1026600089F8980152460AF01DFC00283FF4D3AEC9
:102670000A2201A90AF06EFDC9F8100000287FF4B3
:10268000CCAEE3E6082E7FF468AFC4E601464022F4
:1026900009F2991009F0C2FDBFE699F8003058E739
:1026A00000000020E46A0110A4690110AC69011067
:1026B000B4690110BC690110746A0110686A0110E4
:1026C0004B68002B4ED00A68002A4BD0F0B58C68BE
:1026D000DFF8B0E0254D8F69D1F814C0C0E90023C0
:1026E000D1E90323002A08BF7246C260204A002BAA
:1026F00008BF134603618B6A002C08BF2C46002BD1
:1027000008BF13468460D1E90B62D1E908548362A3
:102710004B6BC969002908BF7146C1611549002F7B
:1027200008BF0F46002E08BF0E4613498761002DD3
:1027300008BF0D46002C08BF0C461049C662002A8F
:1027400008BF0A460E490562BCF1000F08BFF446F7
:10275000002B08BF0B46C0F814C0446202634363F9
:102760000020F0BD6FF01500704700BFA5220010DB
:10277000BD2200106D230010B5220010C5220010EC
:10278000CD220010AD220010F8B550B30C4641B375
:102790000E6836B307464FF4D851012009F072F99C
:1027A000054608B300F5D55031461830FFF788FFCD
:1027B000061E11DB05F58053A268C3F8F42AE2680F
:1027C0006168C3F8F82A227CC3F8F01A83F8FC2A5F
:1027D0003D6000263046F8BD284609F0CDF9304668
:1027E000F8BD6FF01506F5E76FF00B06F2E700BFD6
:1027F00009F0C2B980B32DE9F84317464AB38846B9
:102800000646034600241D7903F52B7335B10134C8
:102810000A2CF8D16FF00F00BDE8F8834FF42B724B
:1028200002FB04F906EB09032946184609F0F6FCF9
:1028300003462846D8E90051D8F808204FF0010C8B
:1028400083F804C046F80950C3E9A0123C60BDE813
:10285000F8836FF01500DFE76FF01500704700BFD9
:102860002DE9F04F2DED028B91B00391002800F07F
:102870003F830A2900F23C834FF42B7601FB06F6D6
:10288000841905462379002B00F0328306F2F913F0
:10289000C31808EE103A06F52973C31808EE903AEB
:1028A00006F5F673C318059306F52673C31800F5ED
:1028B0008057069306F2A113C31806F1210880443D
:1028C00006F5227106F1080B0793D7F8F02A94F861
:1028D000F8310491C246834400EB0109B0462168F7
:1028E00009920A91062B00F20681DFE813F0070037
:1028F0003D007E00D1002D000401A00021462846A5
:10290000FFF7E8FC031EC0F2428118EE902A18EE91
:10291000100A5946FFF762FD0028C0F21881237A99
:10292000082B19D1D4F88032C4F88832A369C4F8CE
:1029300090320023C4F88C32042384F8F831D7F89D
:10294000F03A216809930A9104234A462846FFF782
:1029500011FD031EC0F21B81012384F8F831D7F862
:10296000F02A216809920A91CDE90B2194F8E1112E
:102970008DF83410237A04F1A1010E9104F1610164
:102980000F910D2B00F2B780DFE813F07C01DF011F
:10299000EE01FC017C017C017C010E00AC01CF0149
:1029A000C8010E007C017C01072B00F08582D4E970
:1029B000A023D7F8E06A04F121010BA8B047012356
:1029C0000028C4F8E40184F8E831C0F28E82D4F81B
:1029D0008032C4F8F401C4F8EC31D7F8F02A236847
:1029E0000A930223099284F8F83194F8E831002B15
:1029F00040F0BA80D4F8EC3123B1D4E97C239A4278
:102A0000C0F0BC80237AA3F10902012A31D994F8DD
:102A1000A822002A00F09880052B00F0958006235C
:102A200084F8F831D7F8F03A099323680A93D7F875
:102A3000D43A514609A89847031EC0F2B2802146F5
:102A40002846FFF747FC00280CDB18EE902A18EE0A
:102A5000100A5946FFF7C2FC002803DB237A062B35
:102A600000F0978194F8F831052B6DD0D7F8F02A53
:102A700035E70023C9F80030C9F80430C9F8083038
:102A8000032384F8F831D7F8F02A216809920A91D3
:102A9000237A092B00F0C880D4F89032CDE90D21BB
:102AA000002B00F08F80D4F88C229A42C0F09C80DA
:102AB000D7F8D06AD4F8882251460DA8B047031E33
:102AC00065DBD4F89032A669F61A0023A661C4F833
:102AD0009032002E40F0D380012384F8E831D7F8FB
:102AE000D43A514609A89847002880F258814646B2
:102AF000C4F8E40129E046466FF015034FF4EE7286
:102B000000215846059309F089FB039B06F5F276F0
:102B10004FF42B71A81901FB0351049B0022AA5109
:102B200042608260C2600261EA50059BC9F80420DD
:102B3000C9F80820C1F87C2281F8F821184611B0A4
:102B4000BDEC028BBDE8F08F46460023D6E701239B
:102B500084F8E8310223C4F8E40184F8F831D7F8A6
:102B6000F03A099323680A93D4F89062002E46D075
:102B7000D4F88C329E427FF63DAF4BE003232168B0
:102B8000059A2846FFF7F6FB031EBFF63BAF464605
:102B900013F10B0FB2D1184611B0BDEC028BBDE89A
:102BA000F08F039A4FF42B7404FB02545146C4F87F
:102BB000E431D7F8C43A09A898470023464684F878
:102BC000A832C2E7D4F88412C4F88C321A46A3693A
:102BD0008B4228BF0B469A42D4F88012C4F8903238
:102BE000C4F88812BFF464AF042321684A4628461B
:102BF000FFF7C0FB031ECADBD4F8903258E7D4F8C5
:102C0000E421BD4984EDA28A18EE100A09F008FEFD
:102C1000C4E9A360032321684A462846FFF7AAFBBC
:102C2000031EBFF6E7AEB2E797F8FC3A022B464622
:102C3000CDE90D21D04600F0D680D4F890A2BAF1AB
:102C4000000F38D0D4F88C2292457FF67EAF012356
:102C5000A9594A462846FFF78DFB031E98DB039AC5
:102C60004FF42B7303FB025300209A69D3F89012A0
:102C7000C3F89002521A9A61002A3FF466AF6FF0CF
:102C80000A035BE7052B00F02481062B04BF002319
:102C900084F8A832237A043B092B00F2D280DFE8C3
:102CA00013F00301F600EE00D000D000D000D000F9
:102CB000D000E100D800A069D4F88432D4F8802292
:102CC000C4F88822834228BF0346D7F8C87A414611
:102CD0000DA8B847031EFFF65BAFC4E9A3A3524695
:102CE0009A46B1E7D4F88022A3694FF00001D1548D
:102CF000A3690093D4F88032D7F8DC6A0DAA04F1F6
:102D000021010BA8B0470023C4F890320123C4F876
:102D1000E40184F8E831D7F8F02A60E6A369C4F842
:102D2000E431012384F8E83159E6012384F8E831DD
:102D3000D7F8CC3A04F121010BA8984700283FDAD4
:102D4000C4F8E401D7F8F02A49E6039A4FF42B734C
:102D500003FB02530022C3F8E421012283F8E82197
:102D600046466FF07F03C9E6D7F8F83AC4F8E43175
:102D7000012184F8E811D7F8F41AC4F8EC11C4F86A
:102D8000F4312CE65D4BC4F8EC310B23C4F8F4317C
:102D900025E60023C4F8903284F8A832DCE5059BD0
:102DA0001E605E609E600223237284F8F831A3697E
:102DB000C4F8E431D7F8F03A099323680A9314E68B
:102DC000069EA3694E4AC4F8E4310A21D4F894322D
:102DD000304609F0E1FC0823C4F8EC61C4F8F43192
:102DE000D7F8F02AFBE5D4F88022C4F88822D4F87A
:102DF0009032D4F88402D7F8C8CAA7691A44514659
:102E0000874294BFC3EB0703C3EB00030DA8E04761
:102E1000031EFFF6BDAED4F890221344A269C4F895
:102E200090329342FFF42BAF0123A9594A4628461A
:102E3000FFF7A0FA031EFFF6ABAE0023C4E9A333ED
:102E400083E66FF015000123C4F8E40184F8E8314B
:102E5000C5E5E269D7F8EC3A51460BA89847D7F890
:102E6000F02AF0E7079809F04BFF079AD7F8E46AD1
:102E7000034651460BA8B047D7F8F02AE3E7D7F846
:102E8000C43A51460BA89847D7F8F02ADBE794F8E4
:102E9000203000936269D7F8C06AE36851460BA8F6
:102EA000B047D7F8F02ACEE7D7F8E83A21690BA85F
:102EB0009847D7F8F02AC6E7D4F884320093D7F8B9
:102EC000D86AD4F880320DAA04F121010BA8B047CA
:102ED00075E594F82030E168C4F89412002B3FF4B3
:102EE000D9AE012384F8A832D4E6D7F8F02A76E5E3
:102EF0006FF0150322E600BFE0690110CC690110F4
:102F0000D86901102DE9F047ADF50E7D8A7C91F866
:102F1000119091F810A0DFF8A8C00D462349029146
:102F200002AB2349039153F8223001930646BCE8D3
:102F30000F000DF1100844460FC45CF8043B2360F9
:102F4000BCE80F0009AFBE46AEE80F00DCF8002079
:102F5000CEF8002057F8292058F82A300092EA6865
:102F600014490EA809F05CFC0EA90246044630681C
:102F700005F092FF002815DB0F4B104A4FF4FA5072
:102F800000FB04F4A3FB0430000DA2FB043400EBAF
:102F9000144005F09BFD306805F03EFF29463046A1
:102FA00005F012FF0DF50E7DBDE8F087546B0110A2
:102FB000586B01105C6B0110D55204E9C5B3A291A6
:102FC000C46C011030B5ADF5017D04460D46684670
:102FD0000B4909F025FC69460246206805F05CFFB4
:102FE000002809DB022005F071FD206805F014FFC0
:102FF0002946204605F0E8FE0DF5017D30BD00BFF5
:10300000A06C011084B02DE9F0438BB013AC84E8C0
:103010000E00074614210120FDF710F9002800F0EA
:10302000AB80DDE92123C0E903239DF86C309DF8D6
:1030300064108DF80C301E9B1A9A8DF804100693BC
:1030400005461F9B02924FF4E1394FF0030800261A
:1030500001A96846CDF81090ADF8148007938DF85B
:10306000166005F0B1FE041E55DB0DF16408414603
:103070006846FFF747FF041E67DB009B2B6016982E
:103080008DF8046018210293FDF7D8F80646002851
:103090006FD0DDF858E0BEF1000F24D00EEB4E0CDF
:1030A000159A00EBCC0C034608E0D1E90010C3E907
:1030B00003011833634502F1180214D01168196036
:1030C00051685960D2E9020154695C619860002935
:1030D000EBD111690029E8D1C3E903111833634525
:1030E00002F11802EAD1179B0893189B0993139BCE
:1030F000049301A9149BCDF81CE005F10800069685
:103100000593FEF7BDFE041E1FDB3046FDF798F861
:1031100000243D6027E09DF864308DF804301A9B50
:1031200002939DF86C308DF80C301E9B069301A91C
:103130001F9BADF814806846CDF810908DF816608E
:10314000079305F041FE0DF164083046FDF778F86D
:103150002846FDF775F8684622464146FFF732FFDC
:10316000009805F059FE20460BB0BDE8F04304B0CE
:1031700070476FF00B04E8E76FF00B04F3E700BF54
:1031800038B504466FF4FA65A068FEF721FE38B141
:1031900010F10B0F04D010F1800F01D0A84206D11E
:1031A000E368002BF0D0206998470028ECD038BDA8
:1031B00038B50546006818B105F02EFE044620B962
:1031C000A868FFF755F8044608B1204638BD2846E0
:1031D000FDF736F8204638BD2DE9F04F8BB01D467F
:1031E000834B9DF858809DF85B909DF85EA09DF8FC
:1031F0005FB00E469DF85C10039117469DF85D1078
:103200009DF85920029298429DF85A200491044654
:1032100000F0858003F5F023984208D0042DCCBF40
:103220006FF002006FF001000BB0BDE8F08F042DCD
:1032300000F3DA806F4B15991B688B42C0F0D48085
:103240009DF860308DF826306B4B07932B200023C0
:1032500005928DF8253002F05FFC302002F0B4FAC0
:10326000059A07AB002A4BD1B9F1000F37D1B8F15D
:10327000000F42D1CDF82080039A1AB1089A42F08B
:1032800040020892049A1AB1089A42F02002089269
:10329000BAF1000F03D0089A42F480720892BBF191
:1032A000000F03D0089A42F400720892029A1AB1F1
:1032B000089A42F010020892184602238DF8243032
:1032C00003F004F8159B0193149B00933A462B4698
:1032D0003146204600F0FCF80BB0BDE8F08F032229
:1032E0008DF8242018464FF480620593089202F06E
:1032F000EDFF059BB8F1000FBCD080220892BBE720
:103300004FF4006208921846032205938DF824209A
:1033100002F0DCFF059BB9F1000FA8D0DFE7042D18
:1033200062DC344B15991B68B1EB530F5CD89DF8E8
:1033300060308DF82630304B07930D200023059226
:103340008DF8253002F0E8FB062002F03DFA059AE0
:1033500007AB002A35D1B9F1000F26D1B8F1000F23
:103360003ED1CDF82080039A1AB1089A42F4800227
:103370000892049A1AB1089A42F400120892BAF11B
:10338000000F03D0089A42F080720892BBF1000F40
:1033900003D0089A42F000720892029A002A8BD059
:1033A000089A42F48012089286E703228DF82420BE
:1033B00018464FF000620593089202F087FF059BC4
:1033C000CCE74FF0806208921846032205938DF8EF
:1033D000242002F07BFF059BB9F1000FBED0E4E78B
:1033E0004FF400020892BEE76FF002001CE700BF36
:1033F000006004400C0000200080004010B504462E
:1034000000F0DEF8094B9C4207D0094B9C4209D1E1
:10341000302002F0B7F9002010BD062002F0B2F90A
:10342000002010BD6FF0010010BD00BF006004401F
:1034300000E00B40164B98420FD0164B984224D117
:103440004FF080439B68C3F34223072B1AD8DFE871
:1034500003F012191416080A0D100F4B1868800893
:1034600070470E4870474FF4611070474FF480402A
:1034700070470B4870470B4870470B4870474FF434
:103480007A6070476FF0060070476FF00200704777
:103490000060044000E00B400C00002080F0FA02C5
:1034A00060343C0280C3C9010024F40000F0DEB89F
:1034B00000F026B900F064B900F06CB900F08AB9E8
:1034C00000F0B6B900F0E8B900F0EAB900F01EBAB1
:1034D0002DE9F0419846364B069F98420446164621
:1034E0005FD0344DA8420CBF4FF0010C4FF0FF3CB1
:1034F000314B0CEB8C0C4FEACC0003EBCC0C0022D4
:103500001A50CCE90722CCF80820CCF8102001236F
:103510006FF00102CCF80C30CCE905226360274B38
:103520002361636801B343F0020363600799204697
:10353000FFF7BCFFFF2F37D8E36843EA0747E76090
:10354000236A2362B8F1010F1ED0B8F1020F0FD128
:10355000636843F4403363609EB1E36843F400530F
:103560000020E360BDE8F08123F002036360DDE743
:10357000B8F1030F0DD1636843F4E0236360002EBC
:10358000EBD13046BDE8F081636843F4803363607B
:10359000E2E7B8F1040FDFD1636843F4702363609E
:1035A000DAE74FF0000CA3E76FF00200DAE700BFA4
:1035B0000060044000E00B405C1D002001010100A0
:1035C0002DE9F843264B9842044646D0254EB0429A
:1035D0000CBF01264FF0FF3600236362236A23628B
:1035E0006368214D06EB860023F0010363604FEA18
:1035F000C008E36955F8089023F04013E361B70071
:1036000005EBC000B9F1000F09D002F0BBFA55F884
:1036100008305B6A1BB148466FF00E0198470023E3
:103620006360A360E3602361BC1905EBC4046069B7
:10363000984204DB00F0B0FF6FF0010363613E4489
:1036400005EBC605A869002804DB00F0A5FF6FF0B4
:103650000103AB610020BDE8F8830026BCE700BF92
:103660000060044000E00B405C1D002038B5234B97
:103670001B68B1EB530F3DD80D460446FFF7DAFE49
:10368000B0FBF5F3580813F00103014623D10F28CE
:1036900088BF02462CD9002352100F2A03F10103E0
:1036A0004FEA61011EDD082BF6D14FF400234FF4E1
:1036B00070620F20616921F0FF010143616161695E
:1036C00021F47F410A436261626922F4702213434C
:1036D0000020636138BD421C0F2ADCDCC0B212023C
:1036E0000023E7E7082BE0D0C8B212021B04E1E791
:1036F0000202DFE76FF0020038BD00BF0C000020BF
:103700000129034634D0102932DC1B4A90422AD0CA
:1037100002F5F02290420CBF01224FF0FF32186BED
:10372000C00722D4154802EB820200EBC202D06827
:1037300001281AD1586820F00100586010299160C2
:10374000DA680CD0090201F4706122F4706211434E
:10375000D9605A6842F0010200205A60704722F492
:103760007062DA60F5E70022D9E76FF00600704773
:103770006FF00200704700BF006004405C1D002035
:10378000C36813F4706F1ABFC068C0F30320102021
:10379000704700BFC36823F43043C360032907D8D0
:1037A000DFE801F0120E0802C36843F40053C3605F
:1037B00000207047C36843F48053C3600020704703
:1037C000C368C36000207047C36843F40043C3600C
:1037D0000020704703290BD8DFE801F00220160C07
:1037E000C36823F00103C360C36823F00203C3600E
:1037F00000207047C36843F00103C360C36843F00F
:103800000203C36000207047C36823F00103C36054
:10381000C36843F00203C36000207047C36843F0ED
:103820000103C360C36823F00203C3600020704734
:1038300081B3F8B514460AB90020F8BD06460D4616
:10384000FFF740FE07463046FFF734FEBC4228BF74
:103850003C460828844603D924F00104012CEBD906
:103860000023ACB1032C0CD93168E950043C04337B
:10387000012CF6D1BCF1080F0AD83278EA54581C52
:10388000F8BD012CF9D03188E952023C0233EFE750
:103890001846F8BD00207047C069C0F30560704746
:1038A00089B3F8B514460AB90020F8BD0D4606469E
:1038B000FFF70CFE07463046FFF7FCFDBC4228BF71
:1038C0003C46082888BF24F001040146002CEBD0B8
:1038D000032C4FF0000007D92B583360043C043010
:1038E000002CE2D0032CF7D8012C06D02B5A3380C1
:1038F000023C0230002CF5D1D7E70829FDD82B5C1B
:1039000033700130F8BD0020704700BFC069C0F3BC
:103910000520C0F12000704700F0FEB808B5124B3A
:1039200098420DD0114B984212D0114B984217D1AA
:10393000382001F027FF342002F0EEF8002008BD07
:103940000D2001F01FFF102002F0E6F8002008BD56
:103950001C2001F017FF202002F0DEF8002008BD37
:103960006FF0010008BD00BF00D0014000E0014041
:1039700000F00140C0B370B504460D461646FFF78F
:10398000CDFF1B4B9C4212D01A4B9C421CD01A4BB1
:103990009C4226D1382001F017FF184802F096FC0F
:1039A000324629462046BDE8704000F04DB80D2053
:1039B00001F00AFF124802F089FC324629462046EF
:1039C000BDE8704000F040B81C2001F0FDFE0D483D
:1039D00002F07CFC324629462046BDE8704000F0EB
:1039E00033B86FF0010070BD4FF0FF30704700BF7B
:1039F00000D0014000E0014000F00140106D0110D6
:103A0000F86C0110046D011000F0A0B800F0F0B8DF
:103A100000F0FEB800F00EB900F01AB900F030B9AD
:103A200000F046B900F04CB900F052B900F054B9BA
:103A300000F0BEB900F092BA00F0A0BA014B1968CC
:103A400000F076BD04000020F8B5002858D00F46DD
:103A5000102115460446FFF7E9FF064608B1304637
:103A6000F8BD236843F0010323602046FFF7D8FF29
:103A70002046FFF7D7FF02212046FFF7DDFF062192
:103A80002046FFF7D7FFD7B123681F4A43F0020350
:103A9000944223602ED01D4B9C420ED01C48844281
:103AA0000CBF02244FF0FF341A4B04EB440403EB29
:103AB000C404012363603046F8BD0124F4E73A46AC
:103AC00029462046FFF728FF0F4B9C4214D003F5F0
:103AD00080539C4212D00E498C420CBF02214FF001
:103AE000FF310C4B01EB410403EBC404002666607C
:103AF0003046F8BD3446D7E73946F2E70121F0E712
:103B00004FF0FF36ABE700BF00D0014000E00140BE
:103B100000F00140D01D00200346A0B16AB9B1F504
:103B2000806F0DD27F29C26484BF4FF40042C2640B
:103B3000C26C11430020D96470476FF010007047C9
:103B40006FF0020070474FF0FF307047002841D0FF
:103B500010B4224AA1F574236FF4107423449342E5
:103B600014D31F4B994230D81E4B1B685B08B3FB24
:103B7000F1F149088B1EB3F5FF7F01F1FF3124D825
:103B800041635DF8044B8163FFF740BF154B164C52
:103B90001B685B08B3FBF1F14A00A4FB01C14908B3
:103BA000A4FB0242013952080F2902F1FF320CDC5A
:103BB0000F2A0ADC0902D2B289B21143C16302683A
:103BC0000A4942F400420260D1E76FF002005DF85A
:103BD000044B70474FF0FF30704700BF009F240038
:103BE00040E133000C000020ABAAAAAA801A06000C
:103BF0000649436B826B0868C2F30802C3F30803EB
:103C000013444008B0FBF3F0704700BF0C000020E5
:103C1000034658B1006B1A6B10F0010016BF42F05A
:103C2000020242F0010200201A6370474FF0FF3099
:103C3000704700BF48B1036B43F004030363036B99
:103C400013F00403FBD1184670474FF0FF30704764
:103C500098B191B17AB1002301F1FF3C06E0C16A4D
:103C60000133C9B29A420CF8031004D041688907A5
:103C7000F5D518467047104670474FF0FF30704733
:103C800098B191B17AB1002301F1FF3C06E0013314
:103C90009A421CF80310C9B2C16204D04168C90637
:103CA000F5D518467047104670474FF0FF30704703
:103CB000C36943F08003C361C3691B06FCD470472A
:103CC000436A43F080034362436A1B06FCD4704797
:103CD00081600261704700BF002865D0036843F02F
:103CE00001032DE9F04103600768036843F4806332
:103CF0000E46044607F480670360002943D0002580
:103D00002BE001F005FD236823F0800323600A20E7
:103D100001F0FEFC236813F400784FF00A002BD169
:103D200001F0F6FC236843F0800323600A2001F0D1
:103D3000EFFC23689A054FF00A001DD501F0E8FC5E
:103D4000236843F0400323600A2001F0E1FC23686C
:103D5000DB0525D40135AE4215D00A2001F0D8FC90
:103D6000236823F0400323600A2001F0D1FC23687C
:103D7000D9054FF00A00C4D52368013543F0C003CC
:103D8000AE422360E9D16FF008001FB9236823F425
:103D900080632360236823F001032360BDE8F08182
:103DA0004046002FF6D1F1E74FF0FF30704700BFDB
:103DB0002DE9F041D0E900437F2B00F2C980664B2A
:103DC0009C42054608D003F580539C4204D003F57D
:103DD00080539C4240F0B6802368980740F1B5803C
:103DE00007226FF07F412046FFF71EFE2046FFF7B7
:103DF00019FE2046FFF714FE6A690023E360636141
:103E000042BBEA686B685B00E362236B43F001032B
:103E100000262363202704E0A36813F4FE4F11D18A
:103E2000EA68964219D2A3689906F5D5A968921B4B
:103E300031442046FFF7F2FDA760A36813F4FE4F5C
:103E40000644EDD0EE602046FFF7E4FD6FF0080079
:103E5000BDE8F081EA68002AD4D100221121204671
:103E6000FFF7E2FD6B69002B4DD0B3F5807F88BF73
:103E7000002323622046FFF7CBFD266B16F00206D7
:103E8000FBD16B686A695B0043F00103E362002ABF
:103E900039D010274FF001081DE0A36813F4FE434A
:103EA00029D1A26812F0010F6A6912D0B24210D271
:103EB000911BB1F5807F8CBF236221626B68216BFF
:103EC0005B0043F0010341F002012163C4F8088064
:103ED000E362964217D2A36813F0110FDDD029696F
:103EE000921B31442046FFF797FDA760A36813F4A7
:103EF000FE430644D5D06E612046FFF78BFD6FF080
:103F00000800BDE8F081AB698BB1236B43F002037D
:103F10002363A368DB07FCD54123A360A36813F4E4
:103F2000FE4F0CBF00206FF00800BDE8F081236B4E
:103F300043F004032363A3685A06FCD5A368DB0798
:103F4000E7D5E9E76FF00200EFE76FF00600ECE776
:103F50006FF01000E9E700BF00D001408269D2B2E3
:103F60008A42034607D3C26922F4706242EA012101
:103F70000020D96170476FF0020070478269C2F378
:103F800007228A42034607D3426A22F4706242EA59
:103F900001210020596270476FF00200704700BF96
:103FA0002DE9F84F054640B1012800F09280022823
:103FB00000F01E8100239B68FFDEA54CDFF89CB259
:103FC000A368DBF8007013F4FE4F40F0FA80DFF8CE
:103FD0009092FA6859F82560DFF888A2B2425AF840
:103FE000258011460FD87B69434526D9A16811F079
:103FF000110F17D1B24200F0C68049F825604AF887
:104000002580BDE8F88FA368990600F19380E368E6
:1040100043F02003E3607B699845EED2A16811F07C
:10402000110FE7D03969A3EB080241442046FFF79E
:10403000F3FC1023F968A3608044B142DDD17B69B1
:10404000984540F0A0800023E3606361A368A3600B
:10405000BB6922692261002B40F0D580236B43F0BD
:1040600004032363A36813F4FE4F794B00F0D08060
:104070009C4200F0F98003F580539C4200F00781D8
:1040800003F580539C420CBF02234FF0FF335BF8D3
:104090002300C369002B00F0D3806FF0080198471C
:1040A0000023E3606361A268A260694A216921611B
:1040B00094420AD0674B9C4200F0C08003F58053C5
:1040C0009C420CBF02234FF0FF3300224BF8232009
:1040D00097E7604CDFF884B1A368DBF8047013F451
:1040E000FE4F3FF474AFA368A360226922610023EE
:1040F000E36020466361FFF78DFC5BF82500C36930
:104100001BB16FF0080198470023E3606361A36867
:10411000A360236923614F4B9C4200F08D804E4D7C
:10412000AC420CBF02254FF0FF3500234BF8253081
:10413000BDE8F88FB968921B31442046FFF76EFC4A
:10414000FA6806442023B242A3603FF660AFE368FA
:1041500023F02003E3607FF45EAF7B69002B3FF424
:104160006FAF226B42F0020222630122A260E2687A
:10417000434542F00102E2607FF662AFA26812F0AE
:10418000110F7FF44FAFA268D2077FF536AF01223F
:10419000A260B8F1000F04D17A68520042F0010227
:1041A000E262A3EB0802B2F5807F88BF00222262A0
:1041B0009845E36834BF43F0110323F01103E36033
:1041C0001BE7A368A360236923612046E56065615E
:1041D000FFF720FCDBF80000C36913B16FF00801A2
:1041E0009847E5606561A368A360236923619CE744
:1041F000194CDFF868B0A368DBF8087013F4FE4FC1
:104200003FF4E5AE6FE7236B43F00203236329E736
:104210009C4236D003F580539C423AD003F580533C
:104220009C420CBF02234FF0FF335BF82300C369AD
:1042300033B10021984733E7012576E7012344E7AE
:10424000E3606361A368A3602369236132E700BF71
:1042500000D0014000E0014000F00140B81D002006
:10426000C41D0020AC1D0020DBF80000C369002B3A
:104270007FF413AFE3606361A268A26022692261E8
:1042800023E7DBF80000C369002BD2D1F2E701235A
:10429000FDE60123C9E700BF2DE9F84398460E4625
:1042A0009F4B11688768D0F8009015460B4000229C
:1042B0000446C8F80020002B75D117F4FE4F40F0DB
:1042C000E580CA0640F12781FB0606D51EB1002213
:1042D00002212046B0471023A3602369D90706D5E1
:1042E0001EB1002206212046B04701232361296820
:1042F00048F220030B4200F0F180BB0606D51EB148
:10430000002203212046B0472023A3602369980799
:1043100006D51EB1002205212046B04702232361A5
:1043200039041FD50023C8F800301EB142460421CD
:104330002046B0477B4A00234FF400419442A160DD
:10434000C5E900330AD0784B9C4200F0E28003F5C7
:1043500080539C420CBF02234FF0FF33734A00216D
:1043600042F823107A061ED50023C8F800301EB18B
:10437000424604212046B0476A4A00234021944225
:10438000A160C5E900330AD0674B9C4200F0BF80B2
:1043900003F580539C420CBF02234FF0FF33634A66
:1043A000002142F823107B0211D51EB100221146D4
:1043B0002046B0474FF48003A3600823A3604FF466
:1043C0000043A36047F6117C0123C5E900C338020E
:1043D0000ED51EB1002201212046B0474FF4000344
:1043E000A3600823A3604FF620710223C5E90013E0
:1043F0003A0716D519F4006275D01EB100220121CA
:104400002046B0474FF480020823A2604FF40041D9
:10441000A3604FF620720223A160C5E90023BDE826
:10442000F88317F4FE4FFAD06FF00803C8F8003095
:104430001EB1424604212046B04707236FF07F4259
:10444000A2602361636A43F080036362636A1B06B0
:10445000FCD4E36943F08003E361E36913F0800374
:10446000FBD1304A9442C5E9003309D02E4B9C421F
:1044700049D003F580539C420CBF02234FF0FF3319
:104480002A4A002142F82310BDE8F8836FF00803A0
:10449000C8F8003016B142460421B04707226FF039
:1044A0007F412046FFF7C0FA2046FFF7BBFA2046BF
:1044B000FFF7B6FA1B4A00239442C5E9003309D03E
:1044C000194B9C4221D003F580539C420CBF022320
:1044D0004FF0FF33154A002142F823106B689A070A
:1044E0007FF540AF09E716B111462046B0470823D3
:1044F0004FF40001A16047F61172A3600123C5E9E2
:104500000023BDE8F8830123BAE70123E2E7012392
:1045100045E7012322E76B68D8073FF5D5AEE7E60C
:104520000800C00000D0014000E00140B81D00209C
:1045300030B5174B984285B0044624D003F580531C
:10454000984205D003F5805398421ED005B030BD87
:10455000012023689B0704D505B0BDE83040FFF774
:104560001FBDE5680B4B626953F82010CDE902527C
:1045700001AB02AA2046FFF78FFEDDE90223E260CD
:10458000636105B030BD0020E3E70220E1E700BF32
:1045900000D00140B81D0020032870B516D800EBEC
:1045A00080000D4E8400335983B10C48012101F085
:1045B000DBFA054668B933193051DB6807481D60DE
:1045C0005A685A6001F0DEFA284670BD6FF00205A5
:1045D000FAE76FF00505F7E71C1E0020181E002003
:1045E00000F026BE00F05CBE08B5174B984210D014
:1045F000164B984215D0164B98421AD0154B98423C
:104600001FD1442001F088FA442001F0BBF80020BB
:1046100008BD0B2001F080FA092001F0B3F800205A
:1046200008BD0C2001F078FA0A2001F0ABF8002058
:1046300008BD1C2001F070FA212001F0A3F8002031
:1046400008BD6FF0020008BD0020044000300440A7
:10465000004004400014084070B504460E4615465C
:10466000FFF7C2FFA8BB022D2DD0042D18D0204B80
:104670009C421BD01F4B9C422CD01F4B9C4230D0E5
:104680001E4B9C4223D11E4801F020FE442001F025
:104690009BF82A4631462046BDE8704000F068B9D4
:1046A000062001F0B7F8124B9C42E3D1154801F007
:1046B0000DFE092001F088F82A4631462046BDE863
:1046C000704000F055B9052001F0A4F8CFE76FF075
:1046D000020070BD0C4801F0F9FD0A2001F074F8E9
:1046E000D7E70A4801F0F2FD212001F06DF8D0E78C
:1046F0000020044000300440004004400014084002
:10470000E86D01107C6D0110A06D0110C46D0110E9
:1047100038B53A4B9842044630D003F5805398425E
:104720002CD003F58053984228D003F57533984276
:1047300033D10523022A436132D0042A2DD1B1F5A9
:10474000165F4ED8036843F480330360036843F474
:104750000013036042D04FF48032B1F5166FB2FB04
:10476000F1F201FB02F3C3F5803334D9244800256C
:104770004561B3EB510F88BF013218E0042A0CD019
:10478000204600F02DF9002806DD236843F400439D
:10479000236023681B03FCD538BD6FF0020038BDD1
:1047A00003680360B1F5E10F88BF01221CD9144BE7
:1047B0001A611A6812F4403F0AD0186800F44030B9
:1047C000B0F5803F0DD10E4B1B69B0FBF3F0DAE77B
:1047D0004FF4E100F7E701206061CAE707220023F8
:1047E000C4E76FF0100038BD4FF4E102B2FBF1F204
:1047F00001FB02F3C3F5E103BBE700BF0020044067
:1048000000140840164B98421AD003F58053984282
:1048100016D003F58053984212D003F575339842B1
:104820001AD1036813F4403F0CD0006800F4403004
:10483000B0F5803F0DD10B4B1B69B0FBF3F0704717
:1048400000F028B9074B4FF4E1001B69B0FBF3F00F
:1048500070476FF0100070476FF00200704700BFA4
:10486000002004400014084000F05AB900F078B964
:1048700000F09CB9012970B5204B0E460446154640
:1048800011D0984225D01E4B98421ED01D4B984205
:1048900031D11D4801F01AFD2A4631462046BDE8B7
:1048A000704000F0DDB998421DD0154B98421ED0E3
:1048B000144B98421FD1154801F008FD2A46314695
:1048C0002046BDE8704000F0CBB9114801F0FEFC75
:1048D000E2E7104801F0FAFC2A4631462046BDE8DE
:1048E000704000F0BDB90C4801F0F0FCD4E70B4873
:1048F00001F0ECFCD0E76FF0020070BD0020044036
:104900000030044000400440DC6D0110D06D011007
:10491000B86D0110946D0110886D0110AC6D01101F
:1049200000F0C4B900F0DEB900F00EBE00F0F8B936
:1049300000F02ABA00F05CBA00F070BA00F072BA67
:1049400000F086BA00F08ABA00F0A6BA00F0C4BA45
:1049500000F0C6BA00F0C6BA00F0DCBA00F0F4BA53
:1049600000F00EBB00F00EBB00F0B6BC00F0D4BCF3
:104970001A4B984270B504460D4616460BD003F507
:104980008053984207D003F58053984203D003F533
:10499000753398421FD101212046FFF7D5FF00B1A2
:1049A00070BD08212046FFF75FFF0028F8D10146BF
:1049B0002046FFF75DFF0028F2D101462046FFF7B1
:1049C00055FF0028ECD1324629462046FFF7A0FECD
:1049D00000EAE07070BD6FF0020070BD002004407E
:1049E000294B98420BD003F58053984207D003F52A
:1049F0008053984203D003F5753398423BD1052389
:104A000010B44361032A39D8DFE802F0151D2802EB
:104A100004681E4AB2FBF1F344F4403401FB132254
:104A2000046013B1B2EB510F00D901335DF8044BB0
:104A30000361FFF7E7BE164B1A685208B2FBF1F3A9
:104A400001FB1322EDE704686FF0020244F48034A6
:104A5000B2FBF1F3046001FB1322E2E704684FF4B8
:104A6000E10344F40034B3FBF1F301FB03F2C2F5BC
:104A7000E1020460D5E76FF0020070476FF00200BA
:104A80005DF8044B704700BF002004400048E80177
:104A90000C0000201F4B98420BD003F58053984226
:104AA00007D003F58053984203D003F5753398423D
:104AB0002DD1036803F44033B3F5803F1BD0036866
:104AC00013F4403F10D0036803F44033B3F5003FC4
:104AD00017D0036803F44033B3F5403F17D10E4BB2
:104AE0000069B3FBF0F070470C4B00691B685B0872
:104AF000B3FBF0F0704700696FF00203B3FBF0F016
:104B0000704700694FF4E103B3FBF0F070476FF0BA
:104B100002007047002004400048E8010C0000201B
:104B20000E4A904203460BD002F58052904207D0C5
:104B300002F58052904203D002F5753290420AD1BC
:104B40000539032907D81A6822F4406242EA812114
:104B50000020196070476FF0020070470020044089
:104B6000114B98420BD003F58053984207D003F5C0
:104B70008053984203D003F57533984202D161B156
:104B8000012903D06FF00201084670470368002135
:104B900043F48053036008467047036823F480534E
:104BA00003600846704700BF002004402B4A904233
:104BB00003460BD002F58052904207D002F5805296
:104BC000904203D002F57532904244D1042942D874
:104BD000DFE801F01117253303001A6842F01002D4
:104BE0001A601A6842F020021A601A6842F0400205
:104BF00000201A6070471A6822F0100200201A6024
:104C000070471A6842F010021A601A6822F02002F7
:104C10001A601A6822F0400200201A6070471A6871
:104C200042F010021A601A6822F020021A601A6814
:104C300042F0400200201A6070471A6842F01002E9
:104C40001A601A6842F020021A601A6822F04002C4
:104C500000201A6070476FF0020070470020044087
:104C6000114B98420BD003F58053984207D003F5BF
:104C70008053984203D003F57533984202D161B155
:104C8000012903D06FF00201084670470368002134
:104C900043F40053036008467047036823F400534D
:104CA00003600846704700BF002004400C4B984248
:104CB0000BD003F58053984207D003F580539842F8
:104CC00003D003F57533984204D14368DB0604D45E
:104CD000006A70476FF0020070476FF00C00704779
:104CE000002004400D4B98420BD003F580539842AE
:104CF00007D003F58053984203D003F575339842EB
:104D000006D1436813F0800305D10162184670474D
:104D10006FF0020070476FF00B00704700200440F6
:104D2000F8B5184B9842064617460BD003F580534A
:104D3000984207D003F58053984203D003F57533AA
:104D4000984218D1D1B1CFB13B68002B0FDD4D1E79
:104D5000002405E005F8010F3B680134A34207DD9C
:104D60003046FFF7E1FD0028F4DA3C60F8BD00248E
:104D70003C600020F8BD6FF00200F8BD4FF0FF303E
:104D8000F8BD00BF00200440F8B5184B9842064615
:104D900017460BD003F58053984207D003F5805394
:104DA000984203D003F57533984218D1D1B1CFB1F1
:104DB0003B68002B0FDD4D1E002403E03B680134EF
:104DC000A34209DD15F8011F3046FFF7ABFD0028AF
:104DD000F4D03C60F8BD00243C600020F8BD6FF0CA
:104DE0000200F8BD4FF0FF30F8BD00BF00200440C6
:104DF0008AB110B40139002305E00133046A01F8D7
:104E0000014F9A4203D04468E406F6D51A4610468C
:104E10005DF8044B70471046704700BF4068C0F310
:104E2000032070478AB110B40139002305E0013333
:104E300011F8014F04629A4203D044682406F6D563
:104E40001A4610465DF8044B70471046704700BF85
:104E50004068C0F30330C0F1080070470D4B984222
:104E60000BD003F58053984207D003F58053984246
:104E700003D003F57533984209D1036843F4807376
:104E80000360036813F48073FBD1184670476FF01A
:104E900002007047002004400E4A904203460BD0A7
:104EA00002F58052904207D002F58052904203D022
:104EB00002F57532904209D14A1E072A06D81A68AF
:104EC00022F00F0211430020196070476FF00200BA
:104ED000704700BF00200440006800F00F007047DA
:104EE000C06870470A4B98420BD003F58053984234
:104EF00007D003F58053984203D003F575339842E9
:104F000002D1C160002070476FF00200704700BFFF
:104F1000002004400B4A904203460BD002F5805219
:104F2000904207D002F58052904203D002F57532CC
:104F3000904204D19A6811430020996070476FF045
:104F400002007047002004400C4A904203460BD0F8
:104F500002F58052904207D002F58052904203D071
:104F600002F57532904205D19A6822EA01010020CB
:104F7000996070476FF00200704700BF0020044046
:104F800040687047F8B5794B04460068984200F0D5
:104F9000B58003F5805398425BD003F58053984267
:104FA00000F0B28003F57533984240F0CE800325BF
:104FB0006F4F704E57F82530002B51D056F82530E2
:104FC0001BB12369002B40F0B980E368002B40F04F
:104FD000B580C4E905332069002839D0A368002BC7
:104FE00000F0B9802068614B984200F08F8003F593
:104FF0008053984200F08C8003F58053984200F073
:10500000818003F5753398420CBF03234FF0FF33C3
:105010000B2146F82340FFF79FFC10212068FFF783
:105020009BFC2068FFF788FCA1692369A5685A1AD0
:10503000824228BF024629442068FFF77BFCA3690F
:10504000024613442068A3611021FFF783FC00206F
:10505000F8BD474F474E012557F82530002BADD1FD
:1050600056F82530002B57D02369002B66D1E26813
:105070000023C4E90533002AADD06268002A67D056
:1050800020683A4A90420DD03B4B984242D003F5FB
:105090008053984234D003F5753398420CBF0323F4
:1050A0004FF0FF33402147F82340FFF755FC2068BD
:1050B000FFF746FC6169E3685A1A6368824228BFB9
:1050C000024619442068FFF739FC636903446361B1
:1050D0002068FFF735FC03287FF67DAF6269E3683F
:1050E0009A427FF478AF15B3012D2AD0022D0BBF61
:1050F00004224FF08072012502251AE0002557E7AF
:105100000223CFE7022383E7022551E700237FE74D
:1051100001237DE70123C5E74FF0FF31FFF71EFCB8
:1051200020684FF0FF31FFF715FCE268A0E74FF46D
:105130008042124B403543F825204CE76FF00500C4
:10514000F8BD4FF400420025F3E76FF00300F8BD0F
:105150006FF00200F8BD4FF0FF312068FFF7FEFB53
:105160002068FFF7EFFB6FF00200F8BD002004405D
:105170007C1E00206C1E00200030044000E100E096
:1051800038B5134B98421AD003F58053984214D087
:1051900003F58053984216D003F57533984214D125
:1051A00003220C4B53F8220030B1C5694DB10024E5
:1051B00043F82240A847204638BD0122F1E70022EB
:1051C000EFE7284638BD0222EBE76FF0020038BD5A
:1051D000002004407C1E002038B5134B98421AD0A2
:1051E00003F58053984214D003F58053984216D0AB
:1051F00003F57533984214D103220C4B53F8220067
:1052000030B1C5694DB1002443F82240A84720467B
:1052100038BD0122F1E70022EFE7284638BD02221F
:10522000EBE76FF0020038BD002004406C1E002048
:1052300030B5184B984283B0044626D003F580530E
:1052400098421ED003F5805398421CD003F5753365
:1052500098421CD1032520460191FFF791FF0E4A89
:105260000E4B52F8252053F825309A4206D001996A
:105270002046FFF7B1FF002003B030BD002003B08F
:1052800030BD0125E7E70225E5E70025E3E76FF0FC
:105290000200F1E7002004406C1E00207C1E00206C
:1052A00008B50C4B98420BD003F58053984207D0B9
:1052B00003F58053984203D003F57533984205D126
:1052C0004FF0FF31FFF74AFB002008BD6FF00200EE
:1052D00008BD00BF002004400E4B984210B50446A4
:1052E0000BD003F58053984207D003F580539842C2
:1052F00003D003F57533984209D12046FFF772F9C0
:105300006FF00F012046FFF76BF9002010BD6FF022
:10531000020010BD00200440884B98422DE9F04760
:10532000054600F0C18003F58053984276D003F51E
:105330008053984200F0998003F57533984240F00D
:10534000E8804FF00308DFF8F8912846FFF700FBEC
:1053500059F8286004461EB3AB68034013F00B0FE6
:1053600040F0DA80F368002B5BD1DFF8D8A15AF85F
:1053700028706FB1E30623D45AF8282059F8286022
:10538000964200F0948091691269914273D026B1DF
:105390007269F3689A4200F09D800020BDE8F087B2
:1053A000DFF8A0A15AF82870002F00F0C080AB6889
:1053B000034013F00B0F40F0AF8010F0100357D0F4
:1053C0003B69002BD8D03868FFF7B6FABB693A6959
:1053D000B968D31A834238BFB869BB6938BF101A9D
:1053E000024619443868FFF7A5FABB691844B8614A
:1053F000BC693B6938681C1BFFF7A8FA8442C0F0FF
:10540000818038681021FFF7A5FA5AF8282059F84A
:105410002860B2424BD0002AB5D1B8E74FF001085E
:1054200091E73068DFF81CA1FFF78AFA7369F26828
:105430007168D31A834238BF7069736938BF101A14
:10544000024619443068FFF779FA736918447061AD
:1054500040213068FFF77EFA5AF82870002F89D172
:1054600059F82860002E98D092E74FF002086AE7BA
:105470003A461E4687E7314B9D420BD003F58053D9
:105480009D4207D003F580539D4203D003F5753349
:105490009D4203D10B212846FFF760FA00212846E0
:1054A000FFF79AFE002079E74FF000084BE7BA6952
:1054B0003B699A427FF471AF7A69FB689A427FF444
:1054C0006CAF2846FFF78EF800212846FFF788F8D2
:1054D000002063E7194B9D420BD003F580539D429A
:1054E00007D003F580539D4203D003F575339D42E9
:1054F00003D140212846FFF731FA00212846FFF763
:105500003FFE4AE7BB6939693868C91AFFF71CFAD8
:1055100077E76FF0030041E72846FFF763F86FF085
:1055200008012846FFF75CF86FF0030036E7E968EA
:105530002846FFF70FFA6FF003002FE70020044022
:105540007C1E00206C1E002010B504462046FFF78C
:10555000F3F90028FAD02046BDE81040FFF7E0B983
:1055600038B54FF0E02318499C691A6922F480325B
:105570000A601A69D20723D46FF07F4405225C6168
:105580004FF080759C611A61104B114A1968002315
:10559000A0FB010106F0F4F80E4BB0FBF5F205FBA1
:1055A000120084421A6007D81A6801321A602C442B
:1055B000094B201A186038BD074B201A186038BDF7
:1055C0005D690135E0E700BF901E00200C0000205F
:1055D00040420F0008000020941E002070B54FF0DC
:1055E000E0242369DB0306D50E4D2B68002B03DD79
:1055F0002B68013B2B6070BD0B4E33685BB16FF0C5
:105600000F009847094A00233360126822614FF067
:10561000FF332B6070BD054A4FF0FF3312682261E3
:105620002B6070BD080000208C1E0020901E002002
:1056300010B50C4C0C4B22681960002A0FDC08B91D
:10564000002010BDFFF78CFF2368002BF8DD4FF022
:10565000E0220020136943F00203136110BD6FF0D4
:10566000050010BD080000208C1E0020F8B5174C66
:105670002368002B1EDB26682EBB154B4FF0E02560
:105680001B68AA699A421ED8124F3B685BB16FF043
:105690000F009847104B3E601A682A614FF0FF33A5
:1056A00023600020F8BD0C4A4FF0FF3312682A61D6
:1056B0002360F6E7074C2368002BF2D000209847C0
:1056C00000202060F8BD6FF00500F8BD0800002044
:1056D000941E00208C1E0020901E002010B5094C46
:1056E000236823B16FF00F00984700232360064A18
:1056F000064B10684FF0E0214FF0FF3208611A604E
:1057000010BD00BF8C1E0020901E0020080000204D
:1057100038B5184C2268002A29DC00B938BDFFF7DB
:105720001FFF4FF0E02202E01369DB031BD4236864
:10573000002BF9DC104B1A684FF0E0218B69934283
:10574000FCD80E4D2B6823B16FF00F009847002353
:105750002B600B4B4FF0E022196811614FF0FF33C3
:105760000020236038BD2368013B2360DFE76FF032
:10577000050038BD08000020941E00208C1E00206B
:10578000901E00203F2809D90E4A4038D168C0B287
:10579000012303FA00F00843D06070471F284FF040
:1057A000804208D92038916CC0B2012303FA00F07E
:1057B000084390647047516A012303FA00F00843DC
:1057C00050627047000008403F280AD9104940380D
:1057D000CB68C0B2012202FA00F023EA0000C860E0
:1057E00070471F284FF0804109D920388B6CC0B218
:1057F000012202FA00F023EA0000886470474B6A35
:10580000012202FA00F023EA00004862704700BF5C
:1058100000000840023810B5052877D8DFE800F00E
:105820000827374B5F03BDE810403A4800F04EBDF3
:105830004FF08044384A636F42F2881143F01103FD
:1058400063679161A36843F480330021A3604FF440
:105850007A70FFF7EDFE03E0FFF708FF063052D144
:10586000A368DA01F8D5FFF739FF002010BD002149
:105870004FF47A70FFF7DCFE4FF0804403E0FFF74F
:10588000F5FE06303FD1A3689900ECD4F7E74FF05E
:1058900080440021A36843F40023A3604FF47A708E
:1058A000FFF7C6FE03E0FFF7E1FE06302BD1A36849
:1058B0001B01F8D5D7E74FF080440021A36843F4DB
:1058C0008013A3604FF47A70FFF7B2FE03E0FFF796
:1058D000CDFE063017D1A368D800C4D4F7E74FF047
:1058E00080440021A36843F40033A3604FF47A702E
:1058F000FFF79EFE03E0FFF7B9FE063003D1A36871
:105900009B01B0D4F7E76FF0090010BD6FF0020003
:1059100010BD00BFEC6C01100008004038B54FF01E
:1059200080439D68072877D8DFE800F05A76672320
:105930002C3B4B046E4800F0C9FCC8B94FF08042C4
:10594000936843F46063936000214FF47A70FFF72B
:105950006FFE4FF0804403E0FFF788FE06305ED113
:10596000A3689B04F8D5FFF7B9FE00F0A7FF00205D
:1059700038BD4FF08042936823F4606343F4C06302
:105980009360E1E74FF08044A16811F4002150D00A
:105990004FF08042936823F4606343F400639360A4
:1059A000D2E74FF08044A16811F4801100F08D809F
:1059B0004FF08042936823F4606343F42063936064
:1059C000C2E74FF08044A16811F400316AD04FF073
:1059D0008042936823F4606343F440639360B3E7C9
:1059E0004FF08044A16811F4802148D04FF08042EC
:1059F000936823F460639360A6E74FF08044A16846
:105A000011F4803128D04FF08042936823F4606312
:105A100043F48063936097E76FF0020038BDA3689A
:105A200005F4606523F460632B43A3606FF0090005
:105A300038BDA36843F40023A3604FF47A70FFF7E6
:105A4000F7FD03E0FFF712FE0630EFD1A3681B015C
:105A5000F8D5FFF743FE9BE7A36843F48033A360C8
:105A60004FF47A70FFF7E4FD03E0FFF7FFFD063027
:105A7000DCD1A368D901F8D5FFF730FEC3E7A368EE
:105A800043F48023A3604FF47A70FFF7D1FD03E065
:105A9000FFF7ECFD0630C9D1A3685A01F8D5FFF72E
:105AA0001DFEA3E7A36843F40033A3604FF47A70AC
:105AB000FFF7BEFD03E0FFF7D9FD0630B6D1A368BE
:105AC0009A01F8D5FFF70AFE81E7A36843F4801333
:105AD000A3604FF47A70FFF7ABFD03E0FFF7C6FD5C
